:100000000C942F010C94C80E0C94F30E0C941E0F3C
:100010000C94490F0C94740F0C949F0F0C94CA0FFE
:100020000C94F50F0C9459010C945B010C9459013C
:100030000C9459010C9459010C9459010C945901D8
:100040000C9420100C9459010C9459010C945901F2
:100050000C9459010C9459010C9459010C945901B8
:100060000C9459010C9459010C9459010C945901A8
:100070000C9459010C9459010C9459010C94590198
:100080000C9459010C9459010C9459013D03000042
:10009000000000130D0000000000000101C08000FE
:1000A000000000000000000000060000000000004A
:1000B0000000000000000000000000000000000040
:1000C0000000000000003F000000000000000000F1
:1000D0000000000000000000000000000000000020
:1000E0000000000000000000000000000000000010
:1000F000000000000000000000000000010080007F
:1001000001008000020080000000800000008000EC
:1001100000008000000080000000800000008000DF
:100120000000800003008000040080000580FF00C4
:100130000581FF00FF000000FF000000FF0000003D
:10014000FF000000FF000000FF000000FF000000B3
:10015000FF000000FF000000FF000000FF000000A3
:10016000FF000000FF000000FF000000FF00000093
:10017000FF000000FF000000FF000000FF00000083
:10018000FF000000FF000000FF000000FF00000073
:10019000FF000000FF000000FF0000000000000A58
:1001A0000B0C000000000000010405060000000028
:1001B000000000000000000000000000000000003F
:1001C000000000000000000000000000000000002F
:1001D00000010204081020408001020408102040A1
:1001E000800810010204081020408001020102046E
:1001F0000810204080048040201008040201010201
:1002000004081020408005050505050505050202C6
:1002100002020202020207070404040404040404A4
:10022000070703030303030303030701010101019C
:10023000010101060606060606060600003B003818
:10024000003500320023006200650000003A0037EC
:10025000003400310022006100640000DD0311243D
:100260001FBECFEFD0E1DEBFCDBF11E0A0E0B1E017
:10027000ECE5F3E200E00BBF02C007900D92A8345A
:10028000B107D9F723E0A8E4B1E001C01D92A93875
:10029000B207E1F711E0CFE2D1E004C02197FE01FF
:1002A0000E945C11CE32D107C9F70E9439110C941B
:1002B000AC110C9400001F920F920FB60F921124F4
:1002C0000BB60F922F933F934F935F936F937F9350
:1002D0008F939F93AF93BF93CF93DF93EF93FF934E
:1002E0007894C0E0D1E0E991F991808187FF08C05E
:1002F0008F77209148019181921720F10E9402048A
:1003000081E0CC31D80779F786E984BD8091480136
:100310008F5F8032D1F080934801FF91EF91DF91A0
:10032000CF91BF91AF919F918F917F916F915F918D
:100330004F913F912F910F900BBE0F900FBE0F90DA
:100340001F9018950E944704DBCF10924801E5CF1B
:100350000FB6F894A89581B5886181BD11BC0FBE18
:100360001ABA17BA14BA11BA12B8109261001092E0
:10037000640061E081E00E94CE1061E081E00E94B3
:100380000A110E94E103C0E0D1E0E991F991808176
:10039000982F906890838F770E9402042FEF89E650
:1003A00098E1215080409040E1F700C00000FE013C
:1003B00032970190F081E02D80818F7780830E94B9
:1003C000470421E0CC31D20701F7DDCFCF93DF9393
:1003D00000D01F92CDB7DEB721E0298327E0F22EAF
:1003E0008091490190914A010E94C40C8111D2C0B0
:1003F0003981313021F48BE491E00E947A0C8091B4
:100400008E0182FF21C0E6EAF1E0FB83EA8315E476
:100410006091920180918C0180FFBFC06095661F42
:100420006627661F8A819B810E94760511502A816A
:100430003B81295F3F4F3B832A831111E9CF809194
:100440008E018B7F80938E0180918E0183FF20C06F
:1004500086EA91E09B838A8315E460919301809101
:10046000910187FF9CC06095661F6627661F8A8181
:100470009B810E9492051150EA81FB813796FB8394
:10048000EA831111EACF80918E01877F80938E01DC
:1004900080918E0180FF3CC00CE811E098EFD92ECE
:1004A000E12CE11097C08091940184FF7AC086EA24
:1004B00091E00E94F8048091940180FF77C08DEA5A
:1004C00091E00E94F8048091940181FF74C084EB54
:1004D00091E00E94F8048091940182FF71C08BEB3F
:1004E00091E00E94F8048091940183FF6EC082EC39
:1004F00091E00E94F804E3940F5F1F4FF8E0DF0ED5
:1005000029E0E212CECF80918E018E7F80938E0102
:1005100080918E0181FF3CC00CE811E088EFD82E5D
:10052000E12CE110DDC080919D0184FFC0C086EA0E
:1005300091E00E942E0580919D0180FFBDC08DEA53
:1005400091E00E942E0580919D0181FFBAC084EB4D
:1005500091E00E942E0580919D0182FFB7C08BEB38
:1005600091E00E942E0580919D0183FFB4C082EC32
:1005700091E00E942E05E3940F5F1F4FF8E0DF0E1D
:1005800029E0E212CECF80918E01877F80938E0189
:10059000889526CF8AE0898332CF607843CF607810
:1005A00066CF86EA91E00E94650585CF8DEA91E0ED
:1005B0000E94650588CF84EB91E00E9465058BCF92
:1005C0008BEB91E00E9465058ECF82EC91E00E945A
:1005D000650591CF8D2D90E00596F89E9001F99ECE
:1005E000300D11243B832A83C9018A559E4FF8019F
:1005F000208520FF47C00E94F8048A819B81835593
:100600009E4FF801208521FF40C00E94F8048A8196
:100610009B818C549E4FF801208522FF39C00E9497
:10062000F8048A819B8185549E4FF801208523FF21
:1006300032C00E94F8048A819B818E539E4FF8013C
:10064000208524FF2BC00E94F8048A819B81875358
:100650009E4FF801208525FF24C00E94F8048A815E
:100660009B8180539E4FF801208526FF1DC00E946C
:10067000F8048A819B8189529E4FF801208527FFCB
:10068000A6CF37CF0E946505B8CF0E946505BFCFC2
:100690000E946505C6CF0E946505CDCF0E94650505
:1006A000D4CF0E946505DBCF0E946505E2CF86EAC4
:1006B00091E00E946D053FCF8DEA91E00E946D05AB
:1006C00042CF84EB91E00E946D0545CF8BEB91E02A
:1006D0000E946D0548CF82EC91E00E946D054BCFE2
:1006E0008D2D90E00596F89EF001F99EF00D1124F5
:1006F000FB83EA83CF018A559E4FF801218920FFB1
:1007000047C00E942E058A819B8183559E4FF80128
:10071000218921FF40C00E942E058A819B818C5433
:100720009E4FF801218922FF39C00E942E058A813F
:100730009B8185549E4FF801218923FF32C00E947E
:100740002E058A819B818E539E4FF801218924FFBB
:100750002BC00E942E058A819B8187539E4FF801F2
:10076000218925FF24C00E942E058A819B81805308
:100770009E4FF801218926FF1DC00E942E058A8107
:100780009B8189529E4FF801218927FFA6CFF1CE88
:100790000E946D05B8CF0E946D05BFCF0E946D0508
:1007A000C6CF0E946D05CDCF0E946D05D4CF0E94AB
:1007B0006D05DBCF0E946D05E2CF8BE491E00C94D8
:1007C000790CD79AD69AE1E6F0E080818062808346
:1007D000A69AA59A808188608083808181608083C9
:1007E000808182608083808184608083BB9AA79AA5
:1007F000BC9AA4E6B0E08C9184608C938081806484
:100800008083089581508E30E8F4E82FF0E0E55FB2
:10081000FB4F0C945C1119041B041D0423042504D4
:1008200027042B042F043304370439043B043D040C
:100830004304DF9A0895DE9A0895809162008062F1
:10084000809362000895AE9A0895AD9A08958091BC
:1008500062008860F5CF809162008160F1CF809165
:1008600062008260EDCF809162008460E9CFC39A1C
:100870000895AF9A0895C49A0895809165008460A0
:10088000809365000895809162008064D9CF815083
:100890008E30E8F4E82FF0E0E05BFB4F0C945C1145
:1008A0005E046004620468046A046C0470047404E6
:1008B00078047C047E04800482048804DF98089510
:1008C000DE980895809162008F7D80936200089584
:1008D000AE980895AD98089580916200877FF5CF16
:1008E000809162008E7FF1CF809162008D7FEDCF8D
:1008F000809162008B7FE9CFC3980895AF980895E7
:10090000C4980895809165008B7F80936500089559
:10091000809162008F7BD9CFCF93C0E0CF5F8C2FC7
:100920000E940204CE30D1F7CF9108950F931F9308
:10093000CF938C01C0E0F8018181C81720F0CF91DE
:100940001F910F9108958C2F90E0880F991FD80167
:100950001296ED91FC91E80FF91F0190F081E02DC6
:100960008081982F906890838F770E940204CF5FD8
:10097000E2CF1F93CF93DF93EC018A819B8110E03C
:10098000892BE9F48D819E8110E0892B69F588819E
:100990008E7F8883DF91CF911F910895812F90E002
:1009A000880F991FEA81FB81E80FF91F0190F08100
:1009B000E02D80818F7780830E9447041F5F8981AB
:1009C000181760F3DFCF812F90E0880F991FED811A
:1009D000FE81E80FF91F0190F081E02D80818F7773
:1009E00080830E9447041F5F8C81181760F3CFCF6C
:1009F0001F93CF93DF93EC012881322F357099F448
:100A0000322F3160388321FF09C02A813B81232B9B
:100A100051F0DF91CF911F910C9496042D813E816E
:100A200010E0232BB9F4DF91CF911F910895812F0E
:100A300090E0880F991FED81FE81E80FF91F01906A
:100A4000F081E02D8081982F906890838F770E94AD
:100A500002041F5F8C81181750F3E5CF1F93CF93CB
:100A6000DF93EC01288120FD15C022FF13C0322F37
:100A70003160388321FF09C02A813B81232B51F04B
:100A8000DF91CF911F910C9496042D813E8110E04F
:100A9000232BB9F4DF91CF911F910895812F90E01E
:100AA000880F991FED81FE81E80FF91F0190F081F9
:100AB000E02D8081982F906890838F770E940204A8
:100AC0001F5F8C81181750F3E5CFFC01208120FFB8
:100AD00003C022FF0C94B9040895FC019081957025
:100AE000953019F4CF010C94B9040895CF93DF9396
:100AF000EC018881982F9270691789F0662369F05C
:100B000082608883888180FF0AC0CE010E946505CB
:100B1000CE01DF91CF910C94F8048D7FF2CFDF915D
:100B2000CF910895CF93DF93EC018881982F927035
:100B3000691789F0662369F082608883888180FF65
:100B40000AC0CE010E946D05CE01DF91CF910C94B9
:100B50002E058D7FF2CFDF91CF910895CF93DF9354
:100B6000D0E0C0E0FE01E457FF4F6491CE010E9447
:100B70008E112196C03181E0D807A1F761E081E8AC
:100B800093E00E948E11DF91CF910C948C040C9411
:100B9000AE0590918E01882361F0906190938E0153
:100BA00081E00E94020480918A00887F80938A00FD
:100BB00008959F7E90938E0181E00E9447041092D9
:100BC00088001092890080918A008460EFCF979A04
:100BD0008FE79EE30197F1F700C000009798089512
:100BE0001F93CF93DF93EC0180918E0184FF0BC0A4
:100BF0008FE090E00E948611182F80E190E00E9423
:100C00008611181306C0CE01DF91CF911F910C946D
:100C10008611FFCF0F931F93CF93DF93EC01162F15
:100C200080918E0184FF25C0CF30D10561F48FE023
:100C300090E00E948E118FE090E0DF91CF911F91A4
:100C40000F910C9486118FE090E00E948611082F7E
:100C500080E190E00E94861108130AC0C730D105D8
:100C600031F0C830D10529F4183049F0FFCFFFCF5B
:100C7000FFCF612FCE010E948E11CE01DECF0E94E8
:100C8000AE0588E0DF91CF911F910F9108950F93EA
:100C9000009721F160918F01709190016817790799
:100CA00029F5822F90E0309192013078231729F0B6
:100CB00020918E01246020938E010D3189F00F3731
:100CC00079F00F3081F49C013695322F2227379529
:100CD000279580919201822B809392010F91089524
:100CE00040939201F0CF10929201EDCF309191019B
:100CF0003F773817190691F7822F90E030919301D2
:100D00003078231729F020918E01286020938E01DE
:100D10009695982F882797958795482B4093930110
:100D2000DDCF009731F160918F01709190016817CC
:100D3000790709F06DC041504A30D8F4E42FF0E053
:100D4000EC55F94F0C945C11AE06BA06C506D506F3
:100D5000DC06E306EA06F106F80600078091940136
:100D6000821739F02093940180918E0181608093E5
:100D70008E0108959091950180EF820F292B2823F1
:100D80009217B9F320939501EFCF3091950140E18F
:100D9000249FC0011124832B2295207F215F822371
:100DA000381739F380939501DFCF80919601821730
:100DB00001F320939601D8CF809197018217C9F251
:100DC00020939701D1CF80919801821791F22093BF
:100DD0009801CACF80919901821759F22093990105
:100DE000C3CF80919A01821721F220939A01BCCF40
:100DF00080919B01821709F4BCCF20939B01B4CF53
:100E000080919C01821709F4B4CF20939C01ACCF50
:100E1000309191013F773817190609F0AACF423077
:100E2000A1F018F4413031F008954330D1F044304E
:100E300049F1089580919D01821709F49ACF20937A
:100E40009D0180918E01826092CF90919E0180EFF2
:100E5000820F292B2823921709F48BCF20939E0110
:100E6000F0CF30919E0140E1249FC0011124832BDB
:100E70002295207F215F8223381709F47ACF80934F
:100E80009E01DFCF80919F01821709F472CF2093DA
:100E90009F01D7CF262F30E090919201907869176B
:100EA00029F090918E019C6090938E013695322F9F
:100EB000222737952795822B809392018093930167
:100EC0000895E82FF0E0E457FE4F8085861739F04B
:100ED0006087618B80918E01836080938E0108957D
:100EE00087EE95E0892B11F00C94E705089580E0DA
:100EF00090E0892B29F080916C0183FD0C94000017
:100F000008951F93CF93DF93EC01162F87EC95E0A4
:100F1000892B91F0C830D10579F4662319F10E942C
:100F2000C70580E090E0892BB9F0612FCE01DF91F9
:100F3000CF911F910C94000080E090E0892BA9F7DD
:100F400081E0C11590E1D90708F080E0111105C0DA
:100F5000DF91CF911F91089581E027972297C0F7E5
:100F600080E0F6CF80E090E0892BF9F681E0F0CFC9
:100F700020EF35E0232B11F00C94F0050C94861132
:100F80001F93CF93DF93EC01162F83319105C8F4A3
:100F90008131910528F48130910511F0099731F4E0
:100FA0008FEF9FEF90936A01809369018AE096E04A
:100FB000892BA9F0612FCE01DF91CF911F910C9465
:100FC0000A064D9799F7177F10936C018091530192
:100FD0008F73912F907C892B80935301E1CFCE01A9
:100FE0000E9486111817C1F0612FCE010E949F1137
:100FF00080E090E0892B21F0612FCE010E9400005B
:1010000080E090E0892B41F08091530184FD04C081
:10101000612FCE010E940000CE01DF91CF911F9180
:101020000C948611CF93DF932091690130916A016E
:101030002F3F320721F0C901DF91CF9108958091B0
:101040006C0187FF2BC086FF0FC089E090E00E94F3
:10105000B807C82F81E090E00E94B8079C2F9093BA
:101060006A018093690115C089E090E00E94B80789
:10107000C82F81E090E00E94B80790E4C99F9001DA
:101080001124207C31708F73282B30936A012093B8
:1010900069018091690190916A01CECF85FF0CC0F2
:1010A00081E190E00E94B807C82F82E190E00E94A1
:1010B000B807C05CDD0BD2CF81E090E00E94B8079A
:1010C00090E0CDCFBF92CF92DF92EF92FF920F933D
:1010D0001F93CF93DF938B01B42E690182FF23C04E
:1010E00083FF17C061E0C8010E9481078823D9F1FE
:1010F0006B2DC8010E94C0078B1135C0F601DF912E
:10110000CF911F910F91FF90EF90DF90CF90BF9004
:10111000099460E0C8010E948107882321F1C80179
:101120000E94B807E9CF842F8770C1E0D0E07E012C
:1011300001C0EE0C8A95EAF7D42FD870CB010E943B
:10114000B807C82FB4FE1CC061E0C8010E94810727
:10115000882349F0DD2389F0CE296C2FC8010E9435
:10116000C0078C1759F2DF91CF911F910F91FF901B
:10117000EF90DF90CF90BF900895E094CE21EDCF17
:1011800060E0C8010E948107882369F3CE21DD2336
:1011900019F0C111B3CFE7CFCC2309F4AFCFE3CF20
:1011A000DF92EF92FF920F931F93CF93DF937C0117
:1011B000162FC42FD22ED42FD07E8091530187FFBB
:1011C0002DC0D03EC9F5809154018823A9F190E04B
:1011D0000E94B807D82F8091540190E001960E9498
:1011E000B807982F8D2F2FE3F2228E159F0521F53A
:1011F0006C2F70E0762F6627662773706D296F5FFE
:101200007F4F27E737E0402F8C2FDF91CF911F9141
:101210000F91FF90EF90DF900C94620880FD33C037
:10122000D03609F467C080F4D03209F447C0D03416
:1012300009F460C0DD2381F1DF91CF911F910F91FF
:10124000FF90EF90DF900895D03A09F48BC0A0F49E
:10125000D03891F781E996E02C2F2F7141E0892B4E
:1012600059F3612FC701DF91CF911F910F91FF902B
:10127000EF90DF900C949106D03C09F47FC0D03EF3
:1012800009F4B6CFD9CF0E9412088E159F0541F2FE
:10129000E114F10429F2D0CF8C2F8E7069F680E032
:1012A00090E0892B49F28C2F8170DF91CF911F91B3
:1012B0000F91FF90EF90DF900C940000CF71CF3131
:1012C00009F0BACF87E496E0892B09F4B5CF4D2D0C
:1012D0004F7761F0413061F02D2D221F2227221F10
:1012E0000DE1612FC7010E944706A6CF41E0F4CF70
:1012F00040E0F2CF87E496E0892BC9F02C2F30E054
:101300008C2F8F71813029F030F0803121F08131C4
:10131000F9F440E001C041E095E0359527959A95B4
:10132000E1F721700DE1612FC7010E94470680E0BF
:1013300090E0892B09F480CF4C2F612FC701DF91FA
:10134000CF911F910F91FF90EF90DF900C940000D0
:10135000C901880F991F8E71C4FB442740F9482B9F
:101360004250DACF81E996E0892B09F465CF2C2F22
:101370002F7043E0C4FF75CF42E073CFCF71CE3101
:1013800059F0CF3109F058CF81E996E02D2D45E095
:10139000892B09F066CF50CF81E996E02D2D44E0EE
:1013A000892B09F05ECF48CF1F93CF93DF93FC01C9
:1013B0008081833009F042C02281822F877013819F
:1013C000853059F410935A0187EE95E0892B41F14D
:1013D000DF91CF911F910C94E705CDE1D0E08430EF
:1013E00089F0C82FD0E0843060F480915A018823BE
:1013F00041F08150990B880F991F880F991FC80FD2
:10140000D91F219623FF10C061E0CE010E94810701
:10141000882331F0612FCE010E94C0071817A1F276
:10142000DF91CF911F91089560E0CE010E94810766
:101430008823B1F3CE010E94B807F0CF843081F742
:101440008281682F70E0762F6627662773709381FC
:10145000692B6F5F7F4F20E737E044818C70DF910D
:10146000CF911F910C946208CF93C82F89EC95E01F
:10147000892B39F0809155018C1719F08C2F0E941F
:10148000C905C093550160E070E0CB01C1110E9415
:101490006A1060935601709357018093580190939E
:1014A000590189EC95E0892B41F0809155018C1709
:1014B00021F08C2FCF910C94C905CF9108950E94F3
:1014C000340AE3E5F1E081E087831086ECE5F1E0A2
:1014D00088E0DF011D928A95E9F70895BF92CF92C7
:1014E000DF92EF92FF920F931F93CF93DF93EC0164
:1014F0008A81811126C09B81911123C080E090E0F8
:10150000892B19F080E00E9400008091550188230A
:1015100061F081E0DF91CF911F910F91FF90EF90EB
:10152000DF90CF90BF900C94340A81E0DF91CF918F
:101530001F910F91FF90EF90DF90CF90BF900C9490
:101540005F0A909155019923E1F180578031B0F500
:1015500081E00E94340A488180915C01481309C0EF
:1015600050E06EE571E0CE0102960E947911892B60
:10157000A1F010925B0188E0FE01ACE5B1E00190C2
:101580000D928A95E1F7DF91CF911F910F91FF9016
:10159000EF90DF90CF90BF90089580915B018F5FB7
:1015A00080935B01CE01DF91CF911F910F91FF904E
:1015B000EF90DF90CF90BF900C94D40980E00E9410
:1015C0005F0AEA81EF3F91F48B818111DCCF80E0EB
:1015D00090E0892BC1F2DF91CF911F910F91FF9085
:1015E000EF90DF90CF90BF900C940000E7FD09C012
:1015F0000D812C814B8160E08E2F90E00E94D008FD
:10160000C2CFE03C08F069C19091530197FFBBCF76
:101610008B81682F70E08B0100951095000F111FD2
:10162000000F111F007C1170EF730E2B75956795DD
:10163000262F2370B22E2881253069F58C788C30C6
:1016400051F50E9412088017910721F00F3F1140B9
:1016500009F099CF8B8190E0982F88278827937085
:101660000C81080F192F111D0F5F1F4FCD8161E0F5
:10167000C8010E9481076C2F882309F484CFC80118
:10168000DF91CF911F910F91FF90EF90DF90CF905E
:10169000BF900C94C007680121E0C21AD108CC0C9D
:1016A000DD1CCC0CDD1CCB2876018FEFE81AF80A84
:1016B00080916B018823F9F096FF45C0C70160E077
:1016C00071E00E944811682F81E090E00E94C007FD
:1016D000C701F7FE02C081509F4F692F89E090E05B
:1016E0000E94C00780E090E0892B19F0C7010E949A
:1016F000000010926B018091530180FD3DC08881F4
:10170000843009F054C08B818978813009F03BCF57
:1017100080E090E0892B21F06C81C7010E940000DD
:1017200080E090E0892B09F42ECF4C816B2DC7010E
:10173000DF91CF911F910F91FF90EF90DF90CF90AD
:10174000BF900C940000B8016F73772781E090E0A0
:101750000E94C007B80146E0759567954A95E1F784
:1017600089E090E00E94C00780E090E0892B09F2B8
:10177000C8010E940000BDCF86FF0DC00E94120864
:101780008E159F0509F4BBCF2DEFE21627E0F20678
:101790000CF0B5CFF8CE0E9412088017910709F41B
:1017A000AECF0F3F81E0180709F4A9CFECCE83300C
:1017B000D9F54B81D42FD17043FBCC27C0F980E001
:1017C00090E0892B31F047702C2FB801C7010E949F
:1017D00000008091530186FF13C080E090E0892BC8
:1017E00009F4D1CE4C2F6D2FC701DF91CF911F91FE
:1017F0000F91FF90EF90DF90CF90BF900C9400007E
:1018000080E090E0892B09F4BECE2C2F4D2F6B2D5C
:10181000C801DF91CF911F910F91FF90EF90DF9062
:10182000CF90BF900C940000863009F0ACCE8B8135
:10183000982F9978913021F08F78803809F0A3CED5
:101840008091530186FF25C00E9412088E159F05C6
:10185000D1F48C8190E0382F2227222733700D811C
:10186000020F132F111D0F5F1F4FCE819595879586
:1018700095958795837099278230910599F0039704
:1018800009F4F5CE80CE2DEFE21627E0F2060CF734
:101890007ACE0E94120880179107D9F20F3F1140AB
:1018A000C1F271CEC4FF6FCE61E0C8010E94810712
:1018B000882309F468CEC8010E94B8079C2F97704E
:1018C00061E070E001C0660F9A95EAF7C3FF02C0BD
:1018D000682BD5CE60956823D2CEE83E08F053CE73
:1018E000E05CFF0B8B810E812D814C8161E09E2F8E
:1018F00085CE08950F931F93CF93DF93EC018091D2
:1019000055018823B1F00E946A1000915601109190
:1019100057012091580130915901601B710B820BC6
:10192000930B653171058105910518F080E00E94E7
:101930005F0A80916F01882311F1F89488E0EBE74A
:10194000F1E0DE0101900D928A95E1F710926F01AE
:1019500078948881E82FF0E03296EC0FFD1F8630F6
:1019600018F411928F5FFBCF80E090E0892B19F083
:10197000CE010E940000CE010E946E0A81E0DF913C
:10198000CF911F910F9108950F931F93CF93DF93E2
:10199000DC015B96ED91FC91309709F4F6C1EC0106
:1019A00080E090E0892B21F0618180810E9400001D
:1019B000EB8DFC8D9081913409F42DC108F053C05A
:1019C0009A3209F48BC160F5943209F45BC088F453
:1019D000913209F438C1933209F43EC1911114C017
:1019E00080E090E0892B09F461C081810E940000B1
:1019F0005DC0963209F441C108F450C1983209F42F
:101A00005BC1993209F462C183819481D483C38319
:101A10009C8F8B8F8FEFDF91CF911F910F91089546
:101A20009E3209F473C160F49C3209F467C108F472
:101A30005DC180E090E0892BC9F1618185E043C1FF
:101A4000903309F473C108F469C1913309F478C182
:101A50009034D1F680E090E0892B41F1618180E003
:101A60000E94000023C0923609F485C0B0F591357C
:101A700009F414C1A0F4933409F4DDC008F4D3C010
:101A8000903511F68AE497E0892B81F0818160E03E
:101A900087FF02C061E080580E944A0707C09E3558
:101AA00009F456C168F4923509F0AECFEB8DFC8D88
:101AB00083819481D483C3839C8F8B8F81E0ABCF50
:101AC000903609F44EC0913609F09ECF81E697E03A
:101AD000892B61F3618181E04BC0973609F46BC0BB
:101AE00090F4943609F457C008F44DC0953609F4C3
:101AF0005AC0963609F088CF81E697E0892BB1F27B
:101B0000618186E035C09C3609F436C150F49836C0
:101B100009F07ACF81E697E0892B41F2618188E074
:101B200027C09D3609F44FC09E3609F06DCFA381C2
:101B3000B481109719F28C918F3609F0B7CF80E0FD
:101B400090E0892B09F4B2CF2181622F661F6627AE
:101B5000661F11968C91B0E88B9FC0011124822BD7
:101B600057C081E697E0892B09F4A0CF618180E01E
:101B70000E9461079BCF81E697E0892B09F496CFFD
:101B8000618182E0F5CF81E697E0892B09F48ECF61
:101B9000618183E0EDCF81E697E0892B09F486CF60
:101BA000618184E0E5CF81E697E0892B09F47ECF5F
:101BB000618185E0DDCF81E697E0892B09F476CF5E
:101BC000618187E0D5CF80E090E0892B09F46ECF6A
:101BD0006181862F8F77D1F410E000E067FD0BC0A4
:101BE0000F5F1F4F0038110509F460CF60E0C80196
:101BF0000E940000F5CF0F5F1F4F0038110509F458
:101C000055CF61E0C8010E940000F5CF607890E0F8
:101C10000E9400004BCF80E090E0892B09F446CF72
:101C2000618181E01DCF80E090E0892B09F43ECFF7
:101C3000618182E015CF80E090E0892B09F436CFF6
:101C4000618183E00DCF80E090E0892B09F42ECFF5
:101C500081810E9400002ACF80E090E0892B09F466
:101C600025CF818187FD03C00E9400001FCF819591
:101C700090E0919581959109F7CF80E090E0892BD4
:101C800009F414CF818187FD03C00E9400000ECFAC
:101C9000819590E0919581959109F7CF80E090E052
:101CA000892B09F403CF818160E087FF02C061E0E6
:101CB00080580E940000FACE80E090E0892B09F461
:101CC000F5CE618180E00E940000F0CE80E090E0DF
:101CD000892B09F4EBCE618181E0F5CF80E090E0C3
:101CE000892B09F4E3CE618182E0EDCF80E090E0C2
:101CF000892B09F4DBCE618183E0E5CF80E090E0C1
:101D0000892B09F4D3CE618184E0DDCF80E090E0BF
:101D1000892B09F4CBCE618186E0D5CF80E090E0BD
:101D2000892B09F4C3CE618187E0CDCF80E090E0BC
:101D3000892B09F4BBCE618181E00E940000B6CE00
:101D400080E090E0892B09F4B1CE618182E0F5CF8B
:101D5000A381B481109709F4B1CE8C918F3509F02D
:101D6000A5CE80E090E0892B09F4A0CE11969C913D
:101D700081810E9400009ACE80E090E0892B09F4D6
:101D800095CE81810E94000091CE80E044CE0895DE
:101D90001F920F920FB60F9211240BB60F922F9332
:101DA0003F934F935F936F937F938F939F93AF93E3
:101DB000BF93EF93FF93E0913801F09139010995BA
:101DC000FF91EF91BF91AF919F918F917F916F9113
:101DD0005F914F913F912F910F900BBE0F900FBECF
:101DE0000F901F9018951F920F920FB60F9211240B
:101DF0000BB60F922F933F934F935F936F937F9305
:101E00008F939F93AF93BF93EF93FF93E0913A012A
:101E1000F0913B010995FF91EF91BF91AF919F9197
:101E20008F917F916F915F914F913F912F910F9083
:101E30000BBE0F900FBE0F901F9018951F920F9220
:101E40000FB60F9211240BB60F922F933F934F931F
:101E50005F936F937F938F939F93AF93BF93EF9312
:101E6000FF93E0913C01F0913D010995FF91EF91C5
:101E7000BF91AF919F918F917F916F915F914F91A2
:101E80003F912F910F900BBE0F900FBE0F901F90A0
:101E900018951F920F920FB60F9211240BB60F9246
:101EA0002F933F934F935F936F937F938F939F9362
:101EB000AF93BF93EF93FF93E0913E01F0913F0109
:101EC0000995FF91EF91BF91AF919F918F917F9174
:101ED0006F915F914F913F912F910F900BBE0F909B
:101EE0000FBE0F901F9018951F920F920FB60F9272
:101EF00011240BB60F922F933F934F935F936F93E1
:101F00007F938F939F93AF93BF93EF93FF93E09152
:101F10004001F09141010995FF91EF91BF91AF917F
:101F20009F918F917F916F915F914F913F912F91F1
:101F30000F900BBE0F900FBE0F901F9018951F9221
:101F40000F920FB60F9211240BB60F922F933F935F
:101F50004F935F936F937F938F939F93AF93BF93B1
:101F6000EF93FF93E0914201F09143010995FF91B6
:101F7000EF91BF91AF919F918F917F916F915F9101
:101F80004F913F912F910F900BBE0F900FBE0F906E
:101F90001F9018951F920F920FB60F9211240BB637
:101FA0000F922F933F934F935F936F937F938F93F2
:101FB0009F93AF93BF93EF93FF93E0914401F09110
:101FC00045010995FF91EF91BF91AF919F918F913D
:101FD0007F916F915F914F913F912F910F900BBE29
:101FE0000F900FBE0F901F9018951F920F920FB673
:101FF0000F9211240BB60F922F933F934F935F9341
:102000006F937F938F939F93AF93BF93EF93FF93C0
:10201000E0914601F09147010995FF91EF91BF9141
:10202000AF919F918F917F916F915F914F913F9170
:102030002F910F900BBE0F900FBE0F901F90189511
:102040001F920F920FB60F9211242F933F938F93ED
:102050009F93AF93BF938091880190918901A09144
:102060008A01B0918B013091870123E0230F2D3736
:1020700068F126E8230F0296A11DB11D2093870168
:102080008093880190938901A0938A01B0938B017A
:102090008091830190918401A0918501B091860186
:1020A0000196A11DB11D8093830190938401A0939B
:1020B0008501B0938601BF91AF919F918F913F9120
:1020C0002F910F900FBE0F901F9018950196A11D94
:1020D000B11DD4CF2FB7F894609188017091890118
:1020E00080918A0190918B012FBF0895789483B7D6
:1020F0008C6483BF87B7816087BF82E08EBD8EB559
:1021000081608EBD8FB581608FBD85B5846085BDD2
:1021100085B5806485BDEAE8F0E0808183608083D6
:10212000EBE8F0E080818160808387E886B91AB8A7
:10213000089581508C3088F5E82FF0E0EE55FF4E81
:102140000C945C11CA10CA10CD10AE10B210B510AC
:10215000B810CD10CD10BC10C210C6108FB58F773F
:102160008FBD08958FB58F7DFBCF8FB5877FF8CF5B
:1021700085B58F7D85BD089580918B008F77809385
:102180008B00089580918B008F7DF9CF80918B001B
:10219000877FF5CF83B78F7D83BF0895CF93DF937C
:1021A00090E0FC01EF52FE4F24918A5F9D4FFC01AD
:1021B00084918823C9F090E0880F991FFC01E55BAA
:1021C000FD4FA591B491FC01E55CFD4FC591D49103
:1021D00061110DC09FB7F8948C91209582238C9348
:1021E0008881282328839FBFDF91CF910895623093
:1021F00051F49FB7F8943C91822F809583238C9360
:10220000E8812E2BEFCF8FB7F894EC912E2B2C93E7
:102210008FBFEACF1F93CF93DF93282F30E0F901D0
:10222000E456FE4F8491F901EF52FE4FD491F9012B
:10223000EA5FFD4FC491CC23A9F0162F81110E94B3
:102240009910EC2FF0E0EE0FFF1FE55CFD4FA5911C
:10225000B4918FB7F894EC91111108C0D095DE239A
:10226000DC938FBFDF91CF911F910895DE2BF8CFC4
:1022700008950E9476100E9438110E94A801C0E0C3
:10228000D0E00E94E6012097E1F30E940000F9CF20
:1022900097FB072E16F4009407D077FD09D00E9413
:1022A000651107FC05D03EF4909581959F4F0895E8
:1022B000709561957F4F0895EE0FFF1F0024001C5D
:1022C0000BBE0790F691E02D0994AA1BBB1B51E1B0
:1022D00007C0AA1FBB1FA617B70710F0A61BB70B96
:1022E000881F991F5A95A9F780959095BC01CD013B
:1022F0000895FB01DC0104C08D910190801921F447
:1023000041505040C8F7881B990B0895E199FECFC2
:102310009FBB8EBBE09A99278DB30895262FE19934
:10232000FECF9FBB8EBBE09A01970DB2021631F033
:102330002DBB0FB6F894E29AE19A0FBE0895262FAE
:10234000E199FECF9FBB8EBB2DBB0FB6F894E29AEE
:0C235000E19A0FBE01960895F894FFCFAB
:10235C0036013401320130012E012C012A012801F1
:10236C0026012401220120011E011C010EFF0DFF7C
:10237C000CFF0BFF0AFF09FF08FF07FF06FF05FF15
:10238C0004FF03FF02FF01FFC70E00000000000066
:08239C00000000000000000039
:00000001FF
