:100000000C945F010C946F170C949A170C94C517FD
:100010000C94F0170C941B180C9446180C9471183F
:100020000C949C180C9489010C94A4010C948901E3
:100030000C9489010C9489010C9489010C94890118
:100040000C94C7180C9489010C9489010C948901B3
:100050000C9489010C9489010C9489010C948901F8
:100060000C9489010C9489010C9489010C948901E8
:100070000C9489010C9489010C9489010C948901D8
:100080000C9489010C9489010C948901700074000E
:1000900078007C008000840088008C009000940030
:1000A00098009C00A000A400A800AC00B000B40020
:1000B000B800BC00C000C400C800CC00D000D40010
:1000C000D800DC00E000E400E800EC00F000F40000
:1000D000F800FC000001040108010C013D030000D0
:1000E000000000130D0000000000000101C08000AE
:1000F00000000000000000000006000000000000FA
:1001000000000000000000000000000000000000EF
:100110000000000000003F000000000000000000A0
:1001200000000000000000000000000000000000CF
:1001300000000000000000000000000000000000BF
:100140000000000000000000000000000200140099
:100150000200140003001400010014000100140048
:10016000010014000100140001001400010014003B
:1001700001001400040014000500140000801F009A
:1001800000811F00FF000000FF000000FF000000D2
:10019000FF000000FF000000FF000000FF00000063
:1001A000FF000000FF000000FF000000FF00000053
:1001B000FF000000FF000000FF000000FF00000043
:1001C000FF000000FF000000FF000000FF00000033
:1001D000FF000000FF000000FF000000FF00000023
:1001E000FF000000FF000000FF0000000000000A08
:1001F0000B0C0000000000000104050600000000D8
:1002000000000000000000000000000000000000EE
:1002100000000000000000000000000000000000DE
:100220000001020408102040800102040810204050
:10023000800810010204081020408001020102041D
:1002400008102040800480402010080402010102B0
:100250000408102040800505050505050505020276
:100260000202020202020707040404040404040454
:10027000070703030303030303030701010101014C
:1002800001010106060606060606060000390036CC
:10029000003300300021002000630000003B0038E4
:1002A000003500320023006200650000003A00378C
:1002B0000034003100220061006400005B0411245E
:1002C0001FBECFEFD0E1DEBFCDBF11E0A0E0B1E0B7
:1002D000E2E9F7E300E00BBF02C007900D92AE34F5
:1002E000B107D9F723E0AEE4B1E001C01D92AC3B09
:1002F000B207E1F711E0CFE5D1E004C02197FE019C
:100300000E942F1ACE35D107C9F70E94061A0C9405
:10031000C71B0C940000CF93DF93D0E0C0E0FE0138
:10032000E452FF4F6491CE010E94A91B2196C03177
:1003300081E0D807A1F761E081E893E00E94A91B62
:10034000DF91CF910C940A051F920F920FB60F9276
:1003500011240BB60F922F933F934F935F936F939C
:100360007F938F939F93AF93BF93CF93DF93EF933D
:10037000FF937894C6E0D1E0E991F991808187FFFD
:1003800008C08F7720914E019181921720F10E9431
:10039000800481E0C232D80779F786E984BD809174
:1003A0004E018F5F8032D1F080934E01FF91EF912B
:1003B000DF91CF91BF91AF919F918F917F916F917D
:1003C0005F914F913F912F910F900BBE0F900FBEF9
:1003D0000F901F9018950E94C504DBCF10924E011C
:1003E000E5CF0F93CF93DF930FB6F894A89581B51F
:1003F000886181BD11BC0FBE1ABA17BA14BA11BAFE
:1004000012B8109261001092640061E081E00E94D5
:100410009B1961E081E00E94D7190E945F048F9AC6
:100420000E948B018DE190E00E94A11BCBEBD1E0FB
:1004300088838CE190E00E94A11B89830E94B90708
:100440009C838B8383E190E00E94A11B8D8380E8D5
:100450008E838F830E94C7060E942C070E949D06F0
:100460008FE190E00E94151AEC014AE165E10E94DB
:100470007211D0935001C0934F01CE010E94BA1166
:1004800020E044E162E081E591E00E94931000E009
:1004900020E043E16DE081E591E00E94B41014BCDE
:1004A00015BC85B5887F85BD87B7806487BF85B556
:1004B000836085BD85B7837E85BF85B7806285BF34
:1004C000DF91CF910F910895CF93DF9300D01F92CA
:1004D000CDB7DEB721E0298327E0F22E80914F01CE
:1004E000909150010E947C148111D2C03981313029
:1004F00021F481E591E00E9428118091BD0182FFE5
:1005000021C0E5EDF1E0FB83EA8315E46091C101D0
:100510008091BB0180FFBFC06095661F6627661F84
:100520008A819B810E94650611502A813B81295F47
:100530003F4F3B832A831111E9CF8091BD018B7F0F
:100540008093BD018091BD0183FF20C085ED91E0C6
:100550009B838A8315E46091C2018091C00187FF6B
:100560009CC06095661F6627661F8A819B810E94DA
:1005700081061150EA81FB813796FB83EA831111D2
:10058000EACF8091BD01877F8093BD018091BD013D
:1005900080FF3CC00BEB11E098EFD92EE12CE1106D
:1005A00097C08091C30184FF7AC085ED91E00E94DD
:1005B000E7058091C30180FF77C08CED91E00E9438
:1005C000E7058091C30181FF74C083EE91E00E9432
:1005D000E7058091C30182FF71C08AEE91E00E941D
:1005E000E7058091C30183FF6EC081EF91E00E9417
:1005F000E705E3940F5F1F4FF8E0DF0E29E0E212FA
:10060000CECF8091BD018E7F8093BD018091BD01D1
:1006100081FF3CC00BEB11E088EFD82EE12CE110FC
:10062000DDC08091CC0184FFC0C085ED91E00E94C7
:100630001D068091CC0180FFBDC08CED91E00E9431
:100640001D068091CC0181FFBAC083EE91E00E942B
:100650001D068091CC0182FFB7C08AEE91E00E9416
:100660001D068091CC0183FFB4C081EF91E00E9410
:100670001D06E3940F5F1F4FF8E0DF0E29E0E21242
:10068000CECF8091BD01877F8093BD01889526CF15
:100690008AE0898332CF607843CF607866CF85ED7A
:1006A00091E00E94540685CF8CED91E00E945406A3
:1006B00088CF83EE91E00E9454068BCF8AEE91E0C2
:1006C0000E9454068ECF81EF91E00E94540691CF94
:1006D0008D2D90E00596F89E9001F99E300D112425
:1006E0003B832A83C9018B529E4FF801208520FF4E
:1006F00047C00E94E7058A819B8184529E4FF80182
:10070000208521FF40C00E94E7058A819B818D5191
:100710009E4FF801208522FF39C00E94E7058A819B
:100720009B8186519E4FF801208523FF32C00E9495
:10073000E7058A819B818F509E4FF801208524FF19
:100740002BC00E94E7058A819B8188509E4FF8014B
:10075000208525FF24C00E94E7058A819B81815066
:100760009E4FF801208526FF1DC00E94E7058A8163
:100770009B818A5F9D4FF801208527FFA6CF37CF49
:100780000E945406B8CF0E945406BFCF0E94540660
:10079000C6CF0E945406CDCF0E945406D4CF0E94EB
:1007A0005406DBCF0E945406E2CF85ED91E00E9413
:1007B0005C063FCF8CED91E00E945C0642CF83EE59
:1007C00091E00E945C0645CF8AEE91E00E945C06B3
:1007D00048CF81EF91E00E945C064BCF8D2D90E0D9
:1007E0000596F89EF001F99EF00D1124FB83EA8333
:1007F000CF018B529E4FF801218920FF47C00E94F4
:100800001D068A819B8184529E4FF801218921FF18
:1008100040C00E941D068A819B818D519E4FF80128
:10082000218922FF39C00E941D068A819B81865141
:100830009E4FF801218923FF32C00E941D068A8144
:100840009B818F509E4FF801218924FF2BC00E946D
:100850001D068A819B8188509E4FF801218925FFC2
:1008600024C00E941D068A819B8181509E4FF80101
:10087000218926FF1DC00E941D068A819B818A5FF7
:100880009D4FF801218927FFA6CFF1CE0E945C067B
:10089000B8CF0E945C06BFCF0E945C06C6CF0E9404
:1008A0005C06CDCF0E945C06D4CF0E945C06DBCFF5
:1008B0000E945C06E2CF81E591E00C949210D79AF9
:1008C000D69AE1E6F0E0808180628083A69AA59ABC
:1008D0008081886080838081816080838081826064
:1008E0008083808184608083BB9AA79ABC9AA4E6A7
:1008F000B0E08C9184608C938081806480830895C3
:1009000081508E30E8F4E82FF0E0E757FB4F0C946D
:100910002F1A970499049B04A104A304A504A90415
:10092000AD04B104B504B704B904BB04C104DF9A33
:100930000895DE9A0895809162008062809362003B
:100940000895AE9A0895AD9A0895809162008860E6
:10095000F5CF809162008160F1CF8091620082606A
:10096000EDCF809162008460E9CFC39A0895AF9A79
:100970000895C49A0895809165008460809365000D
:100980000895809162008064D9CF81508E30E8F460
:10099000E82FF0E0E253FB4F0C942F1ADC04DE0446
:1009A000E004E604E804EA04EE04F204F604FA04BF
:1009B000FC04FE0400050605DF980895DE980895FE
:1009C000809162008F7D809362000895AE980895B3
:1009D000AD98089580916200877FF5CF8091620085
:1009E0008E7FF1CF809162008D7FEDCF809162008C
:1009F0008B7FE9CFC3980895AF980895C498089560
:100A0000809165008B7F80936500089580916200DE
:100A10008F7BD9CFCF93C0E0CF5F8C2F0E94800413
:100A2000CE30D1F7CF9108950F931F93CF938C01C0
:100A3000C0E0F8018181C81720F0CF911F910F917C
:100A400008958C2F90E0880F991FD8011296ED9190
:100A5000FC91E80FF91F0190F081E02D8081982F23
:100A6000906890838F770E948004CF5FE2CF1F93BE
:100A7000CF93DF93EC018A819B8110E0892BE9F40D
:100A80008D819E8110E0892B69F588818E7F888316
:100A9000DF91CF911F910895812F90E0880F991FCA
:100AA000EA81FB81E80FF91F0190F081E02D808140
:100AB0008F7780830E94C5041F5F8981181760F3B8
:100AC000DFCF812F90E0880F991FED81FE81E80F25
:100AD000F91F0190F081E02D80818F7780830E9443
:100AE000C5041F5F8C81181760F3CFCF9F92AF9220
:100AF000BF92CF92DF92EF92FF920F931F93CF930B
:100B0000DF937C016B01942E81E0F701481328C02C
:100B1000A280B380E7012196A114B10431F562E00F
:100B200070E081E090E00E944C1A8C01009731F057
:100B3000FC01D182C08288818F5F8883F1E09F129F
:100B400042C0F70113830283DF91CF911F910F9170
:100B5000FF90EF90DF90CF90BF90AF909F9008955F
:100B6000A580B680E7012496D7CF88818F5F8883E0
:100B7000C82FD0E062E070E0CE010E944C1A8C01D8
:100B800020E0AE0141505109822F90E08417950773
:100B900064F0C150D048CC0FDD1FC00FD11FD982E7
:100BA000C882C5010E94041BC9CF880F991FF50197
:100BB000E80FF91F60817181800F911FFC01718323
:100BC00060832F5FE1CFF70116830583BDCF1F93AD
:100BD000CF93DF93EC012881322F357099F4322FB7
:100BE0003160388321FF09C02A813B81232B51F0DA
:100BF000DF91CF911F910C9414052D813E8110E05F
:100C0000232BB9F4DF91CF911F910895812F90E0AC
:100C1000880F991FED81FE81E80FF91F0190F08187
:100C2000E02D8081982F906890838F770E948004B8
:100C30001F5F8C81181750F3E5CF1F93CF93DF937D
:100C4000EC01288120FD15C022FF13C0322F316036
:100C5000388321FF09C02A813B81232B51F0DF918A
:100C6000CF911F910C9414052D813E8110E0232B10
:100C7000B9F4DF91CF911F910895812F90E0880FF3
:100C8000991FED81FE81E80FF91F0190F081E02DA1
:100C90008081982F906890838F770E9480041F5FD7
:100CA0008C81181750F3E5CFFC01208120FF03C091
:100CB00022FF0C9437050895FC01908195709530C2
:100CC00019F4CF010C9437050895CF93DF93EC010D
:100CD0008881982F9270691789F0662369F0826085
:100CE0008883888180FF0AC0CE010E945406CE010D
:100CF000DF91CF910C94E7058D7FF2CFDF91CF91FB
:100D00000895CF93DF93EC018881982F9270691733
:100D100089F0662369F082608883888180FF0AC039
:100D2000CE010E945C06CE01DF91CF910C941D068E
:100D30008D7FF2CFDF91CF910895C6E0D1E0E991A8
:100D4000F99180818F7780830E94C50421E0C232AF
:100D5000D207A9F7C5EDD1E0CE010E94E705CE018B
:100D60000E941D068FEF99E628E1815090402040B7
:100D7000E1F700C00000CE010E945406CE010E949F
:100D80005C06279683E0C83BD80731F7E3CFBF92D4
:100D9000CF92DF92EF92FF920F931F93CF93DF9347
:100DA0008CE8E82E80E0F82E06E011E097E0B92EFE
:100DB000F701C590D490C6010E94A11BC82FC6019F
:100DC00001960E94A11BD82F82E0C80ED11CC6013B
:100DD0000E94A11B803228F06FE1C6010E94BA1B5D
:100DE0008FE1F80160817181FB018183D03841F18D
:100DF000D13869F1D11110C0CB9DE0011124CB5243
:100E0000DE4F41E0CE010E947605F80160817181DC
:100E100040E0CE010E947605F2E0EF0EF11C0E5F7D
:100E20001F4F81E00232180709F0C2CFDF91CF9146
:100E30001F910F91FF90EF90DF90CF90BF9008959A
:100E4000CB9DC001112440E08B529E4FE3CFCB9D40
:100E5000C001112441E0F8CF85E190E00E94A11B80
:100E600080FF05C09091DC0194609093DC0181FFCC
:100E700005C09091E30194609093E30182FF05C067
:100E80009091EA0194609093EA0183FF05C09091EC
:100E9000F10194609093F10184FF05C09091F801F5
:100EA00094609093F80185FF05C09091FF019460D4
:100EB0009093FF0186FF05C0909106029460909385
:100EC000060287FF05C080910D02846080930D02A9
:100ED00086E190E00E94A11B80FF05C09091D501A2
:100EE00094609093D50182FF05C0909114029460A4
:100EF0009093140283FF05C090911B02946090931D
:100F00001B0284FF05C090912202946090932202FC
:100F100085FF05C09091290294609093290286FF75
:100F200005C09091300294609093300287FF05C015
:100F3000809137028460809337020895CF93DF93C6
:100F4000D0E0C0E0FE01E452FF4F6491CE010E9468
:100F5000A91B2196C03181E0D807A1F761E081E8A3
:100F600093E00E94A91BDF91CF910C940A050C9489
:100F70009E07CF93DF938DE190E00E94A11B85FF38
:100F800013C081E190E00E94A11B8F73C82FD0E0B5
:100F9000DC2FCC2782E190E00E94A11B9E01282B30
:100FA000C901DF91CF91089581E090E00E94A11BDB
:100FB000181634F063E081E090E00E94A91B83E002
:100FC00090E0EFCF9091BD01882361F09061909304
:100FD000BD0181E00E94800480918A00887F809317
:100FE0008A0008959F7E9093BD0181E00E94C50410
:100FF000109288001092890080918A008460EFCF5F
:10100000979A8FE79EE30197F1F700C00000979849
:1010100008951F93CF93DF93EC018091BD0184FF6E
:101020000BC08FE090E00E94A11B182F80E190E0A0
:101030000E94A11B181306C0CE01DF91CF911F9112
:101040000C94A11BFFCF0F931F93CF93DF93EC0161
:10105000162F8091BD0184FF25C0CF30D10561F4EA
:101060008FE090E00E94A91B8FE090E0DF91CF918C
:101070001F910F910C94A11B8FE090E00E94A11B87
:10108000082F80E190E00E94A11B08130AC0C7301E
:10109000D10531F0C830D10529F4183049F0FFCF1F
:1010A000FFCFFFCF612FCE010E94A91BCE01DECF63
:1010B0000E949E0788E0DF91CF911F910F910895C4
:1010C0000F93009721F16091BE017091BF016817E5
:1010D000790729F5822F90E03091C10130782317EC
:1010E00029F02091BD0124602093BD010D3189F0CC
:1010F0000F3779F00F3081F49C013695322F22277B
:10110000379527958091C101822B8093C1010F9162
:1011100008954093C101F0CF1092C101EDCF3091FD
:10112000C0013F773817190691F7822F90E0309170
:10113000C2013078231729F02091BD012860209347
:10114000BD019695982F882797958795482B4093B2
:10115000C201DDCF009731F16091BE017091BF01F6
:101160006817790709F06DC041504A30D8F4E42F70
:10117000F0E0E354F74F0C942F1AC708D308DE08A9
:10118000EE08F508FC0803090A09110919098091FC
:10119000C301821739F02093C3018091BD018160A2
:1011A0008093BD0108959091C40180EF820F292B97
:1011B00028239217B9F32093C401EFCF3091C401D3
:1011C00040E1249FC0011124832B2295207F215FC1
:1011D0008223381739F38093C401DFCF8091C50192
:1011E000821701F32093C501D8CF8091C6018217E1
:1011F000C9F22093C601D1CF8091C701821791F225
:101200002093C701CACF8091C801821759F2209359
:10121000C801C3CF8091C901821721F22093C9016F
:10122000BCCF8091CA01821709F4BCCF2093CA01B8
:10123000B4CF8091CB01821709F4B4CF2093CB01B6
:10124000ACCF3091C0013F773817190609F0AACF0B
:101250004230A1F018F4413031F008954330D1F01C
:10126000443049F108958091CC01821709F49ACF56
:101270002093CC018091BD01826092CF9091CD01ED
:1012800080EF820F292B2823921709F48BCF20930C
:10129000CD01F0CF3091CD0140E1249FC001112458
:1012A000832B2295207F215F8223381709F47ACF80
:1012B0008093CD01DFCF8091CE01821709F472CFE8
:1012C0002093CE01D7CFCF93863823E0920719F130
:1012D00038F4813823E09207D9F0CF910C94A11B08
:1012E000873823E09207D1F0883823E09207A9F7E6
:1012F00086E893E00E94A11BC82F87E893E00E9434
:10130000A11B90E02FEFC29F800D911D1124E5CF0E
:1013100081E893E0E2CF86E893E0DFCF87E893E0CF
:10132000DCCF0F931F93CF93DF93EC01162FC638BA
:1013300083E0D80781F150F4C13883E0D807F9F091
:10134000612FCE010E94A91BCE011FC0C73883E0C8
:10135000D80741F1C83883E0D80791F786E893E0D1
:101360000E94A11B082F87E893E00E94A11BC82FB1
:10137000D0E08FEF089FC00DD11D1124E1CF81E88F
:1013800093E00E94A91B81E893E0DF91CF911F9128
:101390000F910C94A11B86E893E00E94A91B86E89C
:1013A00093E0F3CF87E893E00E94A91B87E893E0DE
:1013B000ECCF262F30E09091C1019078691729F089
:1013C0009091BD019C609093BD013695322F2227EC
:1013D00037952795822B8093C1018093C201089590
:1013E000E82FF0E0E554FE4F8085861739F06087DE
:1013F000618B8091BD0183608093BD01089580E081
:1014000098E0892B11F00C940008089580E090E09A
:10141000892B29F08091770183FD0C9400000895B9
:101420000F931F93CF93DF930E941D1920915B01AF
:1014300030915C01EB01C21BD30B20918E013091E6
:101440008F01C217D30708F463C04091780150910F
:1014500079014130510561F0E0917101F091720123
:10146000208130917301232330919301231350C0C5
:1014700070935C0160935B01009190011091910168
:101480004230510509F4DCC04330510509F417C15D
:101490004130510561F480915A01813009F44AC00C
:1014A000E0F1833009F48BC0843009F4B1C080913D
:1014B000780190917901019759F1C017D10708F08F
:1014C00036C1809159018F5F809359018B3000F1B3
:1014D00081E090E0909379018093780141E050E0C1
:1014E00060E17AE080916F010E94F81610929201FB
:1014F0001092930110925A0182E590E0909391012D
:101500008093900183E290E090938F0180938E010D
:10151000DF91CF911F910F910895C017D10730F43B
:1015200081E080935A01C0935D01C1CF84E0809334
:101530005A01BDCFC017D10708F03FC010925A0121
:10154000809159018F5F8093590120915D018C2F0B
:101550000C2E000C990B821B910927FD939597FF88
:1015600003C0919581959109499794F21092790160
:101570001092780182E990E090939101809390011C
:1015800082E590E090938F0180938E011092590133
:101590004091940150E060E17AE080916F010E94F7
:1015A000F816809173018093920190919401933089
:1015B00009F080E0809393017ACF83E0B8CFC01721
:1015C000D107A0F290919401933009F482E08093C6
:1015D000940182E090E0909379018093780182E910
:1015E00090E0909391018093900182E590E0909338
:1015F0008F0180938E0110927E018091590180931A
:101600007F0110927B0110927D0110927C01C0CF6E
:10161000C017D107F0F6109279011092780182E993
:1016200090E0909391018093900182E590E09093F7
:101630008F0180938E011092590110927B01A8CFE7
:1016400090917B019F5F90937B0180917C01880F3B
:10165000C017D107E0F080937C01983009F02DCFBE
:10166000E0917E01E630A9F41092790110927801A0
:1016700082E990E0909391018093900182E590E05F
:1016800090938F0180938E0110927B0110CF816027
:10169000E2CF83E090E0909379018093780190917C
:1016A0007C0181E08E0F80937E01F0E0E858FE4FD0
:1016B000908780917D01892780937D01F8CEC017A6
:1016C000D10728F5109279011092780110927B01D0
:1016D00082E990E0909391018093900182E590E0FF
:1016E00090938F0180938E0180917D018111E9CECD
:1016F00088E0EEE7F1E0A6E8B1E001900D928A956E
:10170000E1F781E080937A0110925901D0CE809167
:101710007E01863009F4A8CF82E090E090937901B1
:101720008093780110927B0110927C01C0CE1092C0
:101730005901EECE1F93CF93DF93EC01162F87EB69
:1017400097E0892B91F0C830D10579F4662319F11F
:101750000E94B70780E090E0892BB9F0612FCE019D
:10176000DF91CF911F910C94000080E090E0892BD5
:10177000A9F781E0C11590E1D90708F080E01111C7
:1017800005C0DF91CF911F91089581E0279722979F
:10179000C0F780E0F6CF80E090E0892BF9F681E099
:1017A000F0CF29E038E0232B11F00C9409080C94B9
:1017B000A11B1F93CF93DF93EC01162F833191056B
:1017C000C8F48131910528F48130910511F0099711
:1017D00031F48FEF9FEF909375018093740183E252
:1017E00098E0892BA9F0612FCE01DF91CF911F9155
:1017F0000C9423084D9799F7177F109377018091E8
:101800005E018F73912F907C892B80935E01E1CFD5
:10181000CE010E94A11B1817C1F0612FCE010E94BA
:10182000BA1B80E090E0892B21F0612FCE010E944D
:10183000000080E090E0892B41F080915E0184FD02
:1018400004C0612FCE010E940000CE01DF91CF9134
:101850001F910C94A11BCF93DF93209174013091C1
:1018600075012F3F320721F0C901DF91CF91089513
:101870008091770187FF2BC086FF0FC089E090E041
:101880000E94D10BC82F81E090E00E94D10B9C2FC9
:10189000909375018093740115C089E090E00E94D7
:1018A000D10BC82F81E090E00E94D10B90E4C99F3A
:1018B00090011124207C31708F73282B3093750197
:1018C000209374018091740190917501CECF85FFB2
:1018D0000CC081E190E00E94D10BC82F82E190E022
:1018E0000E94D10BC05CDD0BD2CF81E090E00E9462
:1018F000D10B90E0CDCFBF92CF92DF92EF92FF92CB
:101900000F931F93CF93DF938B01B42E690182FF56
:1019100023C083FF17C061E0C8010E949A0B88238F
:10192000D9F16B2DC8010E94D90B8B1135C0F6017E
:10193000DF91CF911F910F91FF90EF90DF90CF90AB
:10194000BF90099460E0C8010E949A0B882321F19E
:10195000C8010E94D10BE9CF842F8770C1E0D0E08D
:101960007E0101C0EE0C8A95EAF7D42FD870CB0126
:101970000E94D10BC82FB4FE1CC061E0C8010E94B8
:101980009A0B882349F0DD2389F0CE296C2FC801FA
:101990000E94D90B8C1759F2DF91CF911F910F91B3
:1019A000FF90EF90DF90CF90BF900895E094CE210C
:1019B000EDCF60E0C8010E949A0B882369F3CE2125
:1019C000DD2319F0C111B3CFE7CFCC2309F4AFCF9A
:1019D000E3CFDF92EF92FF920F931F93CF93DF93AA
:1019E0007C01162FC42FD22ED42FD07E80915E0181
:1019F00087FF2DC0D03EC9F580915F018823A9F1F2
:101A000090E00E94D10BD82F80915F0190E0019669
:101A10000E94D10B982F8D2F2FE3F2228E159F0558
:101A200021F56C2F70E0762F6627662773706D297D
:101A30006F5F7F4F26E03AE0402F8C2FDF91CF91F0
:101A40001F910F91FF90EF90DF900C947B0C80FD25
:101A500033C0D03609F467C080F4D03209F447C0EF
:101A6000D03409F460C0DD2381F1DF91CF911F9163
:101A70000F91FF90EF90DF900895D03A09F48BC05A
:101A8000A0F4D03891F78AEA98E02C2F2F7141E02A
:101A9000892B59F3612FC701DF91CF911F910F91CE
:101AA000FF90EF90DF900C94AA08D03C09F47FC01F
:101AB000D03E09F4B6CFD9CF0E942B0C8E159F05CE
:101AC00041F2E114F10429F2D0CF8C2F8E7069F627
:101AD00080E090E0892B49F28C2F8170DF91CF91CB
:101AE0001F910F91FF90EF90DF900C940000CF7149
:101AF000CF3109F0BACF80E698E0892B09F4B5CF51
:101B00004D2D4F7761F0413061F02D2D221F22279E
:101B1000221F0DE1612FC7010E946008A6CF41E09E
:101B2000F4CF40E0F2CF80E698E0892BC9F02C2F6B
:101B300030E08C2F8F71813029F030F0803121F02E
:101B40008131F9F440E001C041E095E035952795F9
:101B50009A95E1F721700DE1612FC7010E9460089D
:101B600080E090E0892B09F480CF4C2F612FC701D2
:101B7000DF91CF911F910F91FF90EF90DF900C9428
:101B80000000C901880F991F8E71C4FB442740F9DA
:101B9000482B4250DACF8AEA98E0892B09F465CFC6
:101BA0002C2F2F7043E0C4FF75CF42E073CFCF716D
:101BB000CE3159F0CF3109F058CF8AEA98E02D2D77
:101BC00045E0892B09F066CF50CF8AEA98E02D2DA9
:101BD00044E0892B09F05ECF48CF1F93CF93DF936A
:101BE000FC018081833009F042C02281822F8770FE
:101BF0001381853059F41093650180E098E0892BBA
:101C000041F1DF91CF911F910C940008CDE1D0E01C
:101C1000843089F0C82FD0E0843060F48091650171
:101C2000882341F08150990B880F991F880F991FC5
:101C3000C80FD91F219623FF10C061E0CE010E947A
:101C40009A0B882331F0612FCE010E94D90B18170F
:101C5000A1F2DF91CF911F91089560E0CE010E9423
:101C60009A0B8823B1F3CE010E94D10BF0CF8430C0
:101C700081F78281682F70E0762F66276627737060
:101C80009381692B6F5F7F4F2FEF39E044818C7018
:101C9000DF91CF911F910C947B0CCF93C82F82EED4
:101CA00097E0892B39F0809160018C1719F08C2F07
:101CB0000E94E207C093600160E070E0CB01C111B7
:101CC0000E94111960936101709362018093630116
:101CD0009093640182EE97E0892B41F0809160013E
:101CE0008C1721F08C2FCF910C94E207CF9108959F
:101CF0000E944D0EEEE5F1E081E087831086E7E675
:101D0000F1E088E0DF011D928A95E9F70895BF921E
:101D1000CF92DF92EF92FF920F931F93CF93DF93B7
:101D2000EC018A81811126C09B81911123C080E042
:101D300090E0892B19F080E00E9400008091600102
:101D4000882361F081E0DF91CF911F910F91FF9087
:101D5000EF90DF90CF90BF900C944D0E81E0DF911B
:101D6000CF911F910F91FF90EF90DF90CF90BF9098
:101D70000C94780E909160019923E1F180578031A5
:101D8000B0F581E00E944D0E4881809167014813B3
:101D900009C050E069E671E0CE0102960E948D1BF9
:101DA000892BA1F01092660188E0FE01A7E6B1E060
:101DB00001900D928A95E1F7DF91CF911F910F91DC
:101DC000FF90EF90DF90CF90BF90089580916601D3
:101DD0008F5F80936601CE01DF91CF911F910F91AC
:101DE000FF90EF90DF90CF90BF900C94ED0D80E0CE
:101DF0000E94780EEA81EF3F91F48B818111DCCF54
:101E000080E090E0892BC1F2DF91CF911F910F917B
:101E1000FF90EF90DF90CF90BF900C940000E7FD13
:101E200009C00D812C814B8160E08E2F90E00E94D3
:101E3000E90CC2CFE03C08F069C190915E0197FFC8
:101E4000BBCF8B81682F70E08B0100951095000F40
:101E5000111F000F111F007C1170EF730E2B759571
:101E60006795262F2370B22E2881253069F58C784E
:101E70008C3051F50E942B0C8017910721F00F3FF9
:101E8000114009F099CF8B8190E0982F88278827FF
:101E900093700C81080F192F111D0F5F1F4FCD81FB
:101EA00061E0C8010E949A0B6C2F882309F484CF4B
:101EB000C801DF91CF911F910F91FF90EF90DF90BC
:101EC000CF90BF900C94D90B680121E0C21AD108C1
:101ED000CC0CDD1CCC0CDD1CCB2876018FEFE81A76
:101EE000F80A809176018823F9F096FF45C0C70172
:101EF00060E071E00E941B1A682F81E090E00E9470
:101F0000D90BC701F7FE02C081509F4F692F89E0AE
:101F100090E00E94D90B80E090E0892B19F0C70176
:101F20000E9400001092760180915E0180FD3DC00C
:101F30008881843009F054C08B818978813009F020
:101F40003BCF80E090E0892B21F06C81C7010E949B
:101F5000000080E090E0892B09F42ECF4C816B2D9E
:101F6000C701DF91CF911F910F91FF90EF90DF900C
:101F7000CF90BF900C940000B8016F73772781E079
:101F800090E00E94D90BB80146E0759567954A9597
:101F9000E1F789E090E00E94D90B80E090E0892B86
:101FA00009F2C8010E940000BDCF86FF0DC00E944B
:101FB0002B0C8E159F0509F4BBCF2DEFE21627E001
:101FC000F2060CF0B5CFF8CE0E942B0C80179107CB
:101FD00009F4AECF0F3F81E0180709F4A9CFECCE8A
:101FE0008330D9F54B81D42FD17043FBCC27C0F976
:101FF00080E090E0892B31F047702C2FB801C701A9
:102000000E94000080915E0186FF13C080E090E096
:10201000892B09F4D1CE4C2F6D2FC701DF91CF91C1
:102020001F910F91FF90EF90DF90CF90BF900C9495
:10203000000080E090E0892B09F4BECE2C2F4D2FBC
:102040006B2DC801DF91CF911F910F91FF90EF9001
:10205000DF90CF90BF900C940000863009F0ACCE9A
:102060008B81982F9978913021F08F78803809F002
:10207000A3CE80915E0186FF25C00E942B0C8E1599
:102080009F05D1F48C8190E0382F222722273370CE
:102090000D81020F132F111D0F5F1F4FCE819595DC
:1020A000879595958795837099278230910599F04A
:1020B000039709F4F5CE80CE2DEFE21627E0F20665
:1020C0000CF77ACE0E942B0C80179107D9F20F3FA4
:1020D0001140C1F271CEC4FF6FCE61E0C8010E9411
:1020E0009A0B882309F468CEC8010E94D10B9C2F5B
:1020F000977061E070E001C0660F9A95EAF7C3FF40
:1021000002C0682BD5CE60956823D2CEE83E08F099
:1021100053CEE05CFF0B8B810E812D814C8161E001
:102120009E2F85CE0895842F60936F014093700198
:10213000A42FB0E0FD01EA5AFD4FE491F0E0EE0F6C
:10214000FF1FE557FD4F4591549150937201409305
:102150007101FD01EF5DFD4FE491E09373012111E9
:1021600022E0622F0C949B190F931F93CF93DF9360
:10217000D62F142FC22FE8E7F1E086E1DF011D9290
:102180008A95E9F782E990E090939101809390011C
:1021900082E590E090938F0180938E0120935E0101
:1021A00000935F018FEF9FEF90937501809374010F
:1021B0001092760183E08093940180917301809363
:1021C00093018093920143E050E060E17AE08091D6
:1021D0006F010E94F8168DE190E00E94D10B8F7381
:1021E0006C2F607C682B8DE190E00E94D90B80936E
:1021F0007701C1FD02C0C0E00DC087E090E00E9401
:10220000D10B8F3FC1F788E090E00E94D10BC1E075
:102210008F3F89F7612F87E090E00E94D90B6D2FE7
:1022200088E090E00E94D90B80E00E94780E87EB56
:1022300097E0892B41F0CC2331F0DF91CF911F91B2
:102240000F910C94B707DF91CF911F910F910895D3
:102250000F931F93CF93DF93EC018091600188234C
:10226000B1F00E9411190091610110916201209159
:10227000630130916401601B710B820B930B65311C
:1022800071058105910518F080E00E94780E80911B
:102290007A01882311F1F89488E0E6E8F1E0DE01A4
:1022A00001900D928A95E1F710927A0178948881D5
:1022B000E82FF0E03296EC0FFD1F863018F41192F3
:1022C0008F5FFBCF80E090E0892B19F0CE010E9458
:1022D0000000CE010E94870E81E0DF91CF911F9117
:1022E0000F910895FF920F931F93CF93DF93EC010B
:1022F000F42E698386E090E00E94151A8C016F2D00
:102300000E94A6161E8F0D8FDF91CF911F910F9106
:10231000FF900895CF93DF93EC019093B1018093E8
:10232000B00189818F3F91F060E00E949B19898103
:102330009CEF980F943020F08251843008F08FEF9A
:1023400042E050E066E774E10E94F81660E08D8D8F
:102350009E8D0E94A816DE83CD83DB87CA87D88B2B
:10236000CF87DD8BCC8BDA8FC98F1C8E1B8EDF91D4
:10237000CF910895CF93DF93EC0183E699E0892B09
:1023800081F081E893E00E9463098883843058F0EB
:1023900081E999E0892B29F061E081E893E00E94CE
:1023A000910981E08883CE01DF91CF910C948A114D
:1023B000FC0130E020E0458156814817590759F467
:1023C00065E0629FA001639F500D11244E5F5F4F37
:1023D000840F951F08952F5F3F4F359625303105A7
:1023E00051F790E080E00895DC015B96ED91FC915F
:1023F000309729F4FC01748F638F0895FC01838169
:1024000094810097D9F7748363830895CF92DF9204
:10241000EF92FF920F931F93CF93DF9300D000D0E2
:1024200000D0CDB7DEB7FC0129833A834B835C83B0
:102430006D83F32EE894F7F88DEF8F0D8E8388323D
:10244000A0F480818130C1F48F01EB80CF2CD12C9E
:102450009CE29F1568F1EBE2FE1628F4FF20B1F133
:10246000FE81F23048F58DE033C085ED8F0D883266
:1024700090F48081823041F326960FB6F894DEBF47
:102480000FBECDBFDF91CF911F910F91FF90EF90C5
:10249000DF90CF9008958DEA8F0D883220F48081EF
:1024A000833051F7D1CF8EEF8F0D823068F6E4CFB5
:1024B0008DEA8F0D8230B8F283E699E0892BF1F135
:1024C000C6018F579C4F0E94630902C0F8018081AA
:1024D00099819B37A9F19F3709F475C0973761F649
:1024E000E812CACF61E0F801858D968D0E94A8168A
:1024F00060E0F801858D968D0E94E7168FE697E1E2
:102500000197F1F700C0000061E0F801858D968D1C
:102510000E94E71660E0F801858D968D26960FB62D
:10252000F894DEBF0FBECDBFDF91CF911F910F9109
:10253000FF90EF90DF90CF900C94A8168FEFC8CF4C
:102540002E2D28703E2D3770E4FE30C0FCE2FF15C2
:1025500040F19BE2F91608F08FCFEE81E23008F4EB
:102560008BCF41E959E0452B09F486CF41E050E09B
:1025700060E070E004C0440F551F661F771F3A9556
:10258000D2F7F82EF42A211103C0F42EF094F82289
:102590006F2DC6018F579C4F0E9491098F116CCFF0
:1025A000A1CF9DEA9F0D9230E0F666CF90E002C089
:1025B000959587953A95E2F781709927281719061E
:1025C00009F05ACF8FCFFBE2FF1609F44EC0FF157A
:1025D00008F440C083E0F81609F447C094E0F91607
:1025E00009F44ACF81E999E0892B31F16E2DC601BA
:1025F0008F579C4F0E9491098E111EC061E0F80117
:10260000858D968D0E94A81660E0F801858D968DC7
:102610000E94E7168FE697E10197F1F700C00000EE
:1026200061E0F801858D968D0E94E71660E0F80163
:10263000858D968D0E94A816F1101ECFF3E0FE1531
:10264000F8F461E081E893E00E94910981E0F801EB
:10265000808312CFE3E5FE1641F0F4E5FF1609F49E
:102660000BCF8CE2F812BECF07CF98E0E912E4CF8F
:1026700087EB97E0892B09F4FFCE0E94B70732CF92
:10268000F801E082F9CE5F926F927F928F929F92D3
:10269000AF92BF92CF92DF92EF92FF920F931F9370
:1026A000CF93DF93EC018091A40181110DC00E94B2
:1026B00011196093AC017093AD018093AE019093BA
:1026C000AF0181E08093A40180919801811111C034
:1026D0000E941D1960517109810991096093A0013F
:1026E0007093A1018093A2019093A30181E0809354
:1026F00098010E941D196B017C010E941119962EF0
:10270000872E782E692E8091AC01592C581A809111
:10271000A0019091A1018601081B190B80919701DE
:10272000811152C0CE010E94D8115C019093960194
:1027300080939501009709F451C0FC011482138223
:102740000031110508F4A4C0053F114008F0CAC0CB
:102750008D8D9E8D0E94D216F50180838091970108
:102760008F5F80939701C092A001D092A101E09267
:10277000A201F092A301F6E0F51508F48DC08D8D4D
:102780009E8D0E94D21690919701E0919501F09153
:102790009601811133C0A92FA695A695A695AE0FD7
:1027A000BF2FB11D892F877041E050E060E070E0DD
:1027B00004C0440F551F661F771F8A95D2F74095B6
:1027C0008C9148234C9331C086E0851508F464C091
:1027D0000031110518F0053F114088F2DF91CF91CB
:1027E0001F910F91FF90EF90DF90CF90BF90AF902F
:1027F0009F908F907F906F905F900895A92FA695DE
:10280000A695A695AE0FBF2FB11D892F877041E009
:1028100050E060E070E004C0440F551F661F771F52
:102820008A95D2F78C91842B8C939F5F909397011C
:10283000C092A001D092A101E092A201F092A30166
:10284000892F877059F6903191F48081873730F461
:10285000BF01CE010E94F411109297019092AC0139
:102860008092AD017092AE016092AF01B7CF983106
:10287000A9F720813181428153816481CE010E9478
:102880000612E0919501F0919601D483C383E4CFC1
:10289000F6E0F51508F0A2CFF9E0F51508F09ECFA7
:1028A000109297019092AC018092AD017092AE01AE
:1028B0006092AF0100919501109196018D8D9E8DD2
:1028C0000E94D216F8018083809197018F5F8093D8
:1028D0009701C092A001D092A101E092A201F092D2
:1028E000A3017CCF86E08515B8F278CF8091B00146
:1028F0009091B1010C9443130F931F93CF93DF93E7
:10290000DC015B96ED91FC91309709F4F6C1EC0186
:1029100080E090E0892B21F0618180810E9400009D
:10292000EB8DFC8D9081913409F42DC108F053C0DA
:102930009A3209F48BC160F5943209F45BC088F4D3
:10294000913209F438C1933209F43EC1911114C097
:1029500080E090E0892B09F461C081810E94000031
:102960005DC0963209F441C108F450C1983209F4AF
:102970005BC1993209F462C183819481D483C3839A
:102980009C8F8B8F8FEFDF91CF911F910F910895C7
:102990009E3209F473C160F49C3209F467C108F4F3
:1029A0005DC180E090E0892BC9F1618185E043C180
:1029B000903309F473C108F469C1913309F478C103
:1029C0009034D1F680E090E0892B41F1618180E084
:1029D0000E94000023C0923609F485C0B0F59135FD
:1029E00009F414C1A0F4933409F4DDC008F4D3C091
:1029F000903511F689ED99E0892B81F0818160E0B5
:102A000087FF02C061E080580E94D90907C09E3547
:102A100009F456C168F4923509F0AECFEB8DFC8D08
:102A200083819481D483C3839C8F8B8F81E0ABCFD0
:102A3000903609F44EC0913609F09ECF80EF99E0B0
:102A4000892B61F3618181E04BC0973609F46BC03B
:102A500090F4943609F457C008F44DC0953609F443
:102A60005AC0963609F088CF80EF99E0892BB1F2F1
:102A7000618186E035C09C3609F436C150F4983641
:102A800009F07ACF80EF99E0892B41F2618188E0EB
:102A900027C09D3609F44FC09E3609F06DCFA38143
:102AA000B481109719F28C918F3609F0B7CF80E07E
:102AB00090E0892B09F4B2CF2181622F661F66272F
:102AC000661F11968C91B0E88B9FC0011124822B58
:102AD00057C080EF99E0892B09F4A0CF618180E095
:102AE0000E94F0099BCF80EF99E0892B09F496CFE3
:102AF000618182E0F5CF80EF99E0892B09F48ECFD8
:102B0000618183E0EDCF80EF99E0892B09F486CFD6
:102B1000618184E0E5CF80EF99E0892B09F47ECFD5
:102B2000618185E0DDCF80EF99E0892B09F476CFD4
:102B3000618187E0D5CF80E090E0892B09F46ECFEA
:102B40006181862F8F77D1F410E000E067FD0BC024
:102B50000F5F1F4F0038110509F460CF60E0C80116
:102B60000E940000F5CF0F5F1F4F0038110509F4D8
:102B700055CF61E0C8010E940000F5CF607890E079
:102B80000E9400004BCF80E090E0892B09F446CFF3
:102B9000618181E01DCF80E090E0892B09F43ECF78
:102BA000618182E015CF80E090E0892B09F436CF77
:102BB000618183E00DCF80E090E0892B09F42ECF76
:102BC00081810E9400002ACF80E090E0892B09F4E7
:102BD00025CF818187FD03C00E9400001FCF819512
:102BE00090E0919581959109F7CF80E090E0892B55
:102BF00009F414CF818187FD03C00E9400000ECF2D
:102C0000819590E0919581959109F7CF80E090E0D2
:102C1000892B09F403CF818160E087FF02C061E066
:102C200080580E940000FACE80E090E0892B09F4E1
:102C3000F5CE618180E00E940000F0CE80E090E05F
:102C4000892B09F4EBCE618181E0F5CF80E090E043
:102C5000892B09F4E3CE618182E0EDCF80E090E042
:102C6000892B09F4DBCE618183E0E5CF80E090E041
:102C7000892B09F4D3CE618184E0DDCF80E090E040
:102C8000892B09F4CBCE618186E0D5CF80E090E03E
:102C9000892B09F4C3CE618187E0CDCF80E090E03D
:102CA000892B09F4BBCE618181E00E940000B6CE81
:102CB00080E090E0892B09F4B1CE618182E0F5CF0C
:102CC000A381B481109709F4B1CE8C918F3509F0AE
:102CD000A5CE80E090E0892B09F4A0CE11969C91BE
:102CE00081810E9400009ACE80E090E0892B09F457
:102CF00095CE81810E94000091CE80E044CEDC011F
:102D0000653308F06DE070E0FB01EF5DFD4FE4918D
:102D10001196EC9311976A5A7D4FFB0124912C93E5
:102D200030E0220F331FF901E555FD4F8591949155
:102D300013969C938E931297F901E556FD4F85915A
:102D4000949115969C938E93149708950C947F16E6
:102D5000DC011296ED91FC91139711969C911197BD
:102D6000808161110EC09095982390831496ED9107
:102D7000FC911597908111968C9180958923808381
:102D80000895623061F49095982390831496ED91A4
:102D9000FC911597808111969C91892BF0CF982BEF
:102DA00090830895CF93DF93DC01EC91F0E0EE0F78
:102DB000FF1FE557FD4FC591D491988111968C91D5
:102DC000982381E009F480E0DF91CF910895DC0140
:102DD0001496ED91FC91159711968C91908161114B
:102DE00004C08095892380830895892BFCCF0895A2
:102DF000883008F5E82FF0E0EE0FFF1FE25CFE4F91
:102E0000718360838150873068F4E82FF0E0E55FDC
:102E1000F84E0C942F1A1C172917371745174C1703
:102E20005717631780916A008C7F482B40936A0084
:102E300089B7816089BF089580916A00837F440FBC
:102E4000551F440F551F482B40936A0089B7826075
:102E5000F1CF80916A008F7C74E0440F551F7A9502
:102E6000E1F7482B40936A0089B78460E3CF8091F3
:102E70006A008F7366E0440F551F6A95E1F7482B8F
:102E800040936A0089B78860D5CF8AB78C7F482B7A
:102E90004ABF89B78061CECF8AB7837F440F551F61
:102EA000440F551F482B4ABF89B78062C3CF8AB7EA
:102EB0008F7C24E0440F551F2A95E1F7482B4ABF29
:102EC00089B78064B7CF8AB78F7396E0440F551FD8
:102ED0009A95E1F7482B4ABF89B78068ABCF1F921C
:102EE0000F920FB60F9211240BB60F922F933F93B0
:102EF0004F935F936F937F938F939F93AF93BF9302
:102F0000EF93FF93E0913E01F0913F010995FF910E
:102F1000EF91BF91AF919F918F917F916F915F9151
:102F20004F913F912F910F900BBE0F900FBE0F90BE
:102F30001F9018951F920F920FB60F9211240BB687
:102F40000F922F933F934F935F936F937F938F9342
:102F50009F93AF93BF93EF93FF93E0914001F09164
:102F600041010995FF91EF91BF91AF919F918F9191
:102F70007F916F915F914F913F912F910F900BBE79
:102F80000F900FBE0F901F9018951F920F920FB6C3
:102F90000F9211240BB60F922F933F934F935F9391
:102FA0006F937F938F939F93AF93BF93EF93FF9311
:102FB000E0914201F09143010995FF91EF91BF919A
:102FC000AF919F918F917F916F915F914F913F91C1
:102FD0002F910F900BBE0F900FBE0F901F90189562
:102FE0001F920F920FB60F9211240BB60F922F93D0
:102FF0003F934F935F936F937F938F939F93AF9381
:10300000BF93EF93FF93E0914401F091450109953F
:10301000FF91EF91BF91AF919F918F917F916F91B0
:103020005F914F913F912F910F900BBE0F900FBE6C
:103030000F901F9018951F920F920FB60F921124A8
:103040000BB60F922F933F934F935F936F937F93A2
:103050008F939F93AF93BF93EF93FF93E0914601BC
:10306000F09147010995FF91EF91BF91AF919F9129
:103070008F917F916F915F914F913F912F910F9021
:103080000BBE0F900FBE0F901F9018951F920F92BE
:103090000FB60F9211240BB60F922F933F934F93BD
:1030A0005F936F937F938F939F93AF93BF93EF93B0
:1030B000FF93E0914801F09149010995FF91EF914B
:1030C000BF91AF919F918F917F916F915F914F9140
:1030D0003F912F910F900BBE0F900FBE0F901F903E
:1030E00018951F920F920FB60F9211240BB60F92E4
:1030F0002F933F934F935F936F937F938F939F9300
:10310000AF93BF93EF93FF93E0914A01F0914B018E
:103110000995FF91EF91BF91AF919F918F917F9111
:103120006F915F914F913F912F910F900BBE0F9038
:103130000FBE0F901F9018951F920F920FB60F920F
:1031400011240BB60F922F933F934F935F936F937E
:103150007F938F939F93AF93BF93EF93FF93E091F0
:103160004C01F0914D010995FF91EF91BF91AF9105
:103170009F918F917F916F915F914F913F912F918F
:103180000F900BBE0F900FBE0F901F9018951F92BF
:103190000F920FB60F9211242F933F938F939F930B
:1031A000AF93BF938091B7019091B801A091B901FD
:1031B000B091BA013091B60123E0230F2D3768F1A9
:1031C00026E8230F0296A11DB11D2093B60180931E
:1031D000B7019093B801A093B901B093BA0180915F
:1031E000B2019091B301A091B401B091B5010196E3
:1031F000A11DB11D8093B2019093B301A093B401BE
:10320000B093B501BF91AF919F918F913F912F9155
:103210000F900FBE0F901F9018950196A11DB11D24
:10322000D4CF2FB7F8946091B7017091B801809115
:10323000B9019091BA012FBF08953FB7F8948091DA
:10324000B2019091B301A091B401B091B50122B740
:1032500006B600FE05C02F3F19F00196A11DB11D55
:103260003FBFBA2FA92F982F8827BC01CD01620F2D
:10327000711D811D911D42E0660F771F881F991FE8
:103280004A95D1F70895789483B78C6483BF87B744
:10329000816087BF82E08EBD8EB581608EBD8FB5A7
:1032A00081608FBD85B5846085BD85B5806485BD31
:1032B000EAE8F0E0808183608083EBE8F0E08081E1
:1032C0008160808387E886B91AB8089581508C3070
:1032D00088F5E82FF0E0E159F64E0C942F1A971973
:1032E00097199A197B197F19821985199A199A19B0
:1032F00089198F1993198FB58F778FBD08958FB561
:103300008F7DFBCF8FB5877FF8CF85B58F7D85BD4E
:10331000089580918B008F7780938B000895809122
:103320008B008F7DF9CF80918B00877FF5CF83B79E
:103330008F7D83BF0895CF93DF9390E0FC01EF5D15
:10334000FD4F24918A5A9D4FFC0184918823C9F036
:1033500090E0880F991FFC01E555FD4FA591B491B0
:10336000FC01E556FD4FC591D49161110DC09FB789
:10337000F8948C91209582238C938881282328832C
:103380009FBFDF91CF910895623051F49FB7F894B9
:103390003C91822F809583238C93E8812E2BEFCF55
:1033A0008FB7F894EC912E2B2C938FBFEACF1F93FD
:1033B000CF93DF93282F30E0F901E451FE4F849141
:1033C000F901EF5DFD4FD491F901EA5AFD4FC49127
:1033D000CC23A9F0162F81110E946619EC2FF0E082
:1033E000EE0FFF1FE556FD4FA591B4918FB7F894EE
:1033F000EC91111108C0D095DE23DC938FBFDF91D3
:10340000CF911F910895DE2BF8CF08950E944319A4
:103410000E94051A0E94F101C0E0D0E00E946402FF
:103420002097E1F30E940000F9CF009711F481E0AA
:1034300090E00C94681A97FB072E16F4009407D0BE
:1034400077FD09D00E94381A07FC05D03EF490950C
:1034500081959F4F0895709561957F4F0895EE0F68
:10346000FF1F0024001C0BBE0790F691E02D09946D
:10347000AA1BBB1B51E107C0AA1FBB1FA617B7079A
:1034800010F0A61BB70B881F991F5A95A9F78095B6
:103490009095BC01CD0108950F931F93CF93DF93B7
:1034A000869F8001879F100D969F100D1124C801E3
:1034B0000E94681AEC01009729F0A80170E060E012
:1034C0000E949A1BCE01DF91CF911F910F91089519
:1034D0000F931F93CF93DF938230910510F482E016
:1034E00090E0E091BA03F091BB0330E020E0B0E05F
:1034F000A0E0309799F42115310509F44AC0281B42
:10350000390B24303105D8F58A819B81611571050D
:1035100089F1FB0193838283FE0111C040815181B7
:103520000281138148175907E0F04817590799F4A9
:10353000109761F012960C93129713961C93329683
:10354000CF01DF91CF911F910F9108950093BA039E
:103550001093BB03F4CF2115310551F042175307E7
:1035600038F0A901DB019A01BD01DF01F801C1CFEB
:10357000EF01F9CF9093BB038093BA03CDCFFE0147
:10358000E20FF31F819391932250310939832883ED
:10359000D7CF2091B8033091B903232B41F4209168
:1035A0000201309103013093B9032093B8032091B5
:1035B0000001309101012115310541F42DB73EB7CD
:1035C0004091040150910501241B350BE091B80393
:1035D000F091B903E217F307A0F42E1B3F0B281755
:1035E000390778F0AC014E5F5F4F2417350748F07C
:1035F0004E0F5F1F5093B9034093B803819391938B
:103600009FCFF0E0E0E09CCFCF93DF930097E9F00D
:10361000FC01329713821282A091BA03B091BB03CE
:10362000ED0130E020E01097A1F420813181820F7C
:10363000931F2091B8033091B9032817390709F077
:1036400061C0F093B903E093B803DF91CF9108957F
:10365000EA01CE17DF07E8F54A815B819E0141153B
:103660005105B1F7E901FB83EA8349915991C40FF0
:10367000D51FEC17FD0761F4808191810296840FBC
:10368000951FE90199838883828193819B838A8333
:10369000F0E0E0E012968D919C9113970097B9F5B8
:1036A0002D913C911197CD010296820F931F20918D
:1036B000B8033091B9032817390739F6309751F517
:1036C0001092BB031092BA03B093B903A093B8034E
:1036D000BCCFD383C28340815181840F951FC8170B
:1036E000D90761F44E5F5F4F88819981480F591F58
:1036F000518340838A819B81938382832115310585
:1037000009F0B0CFF093BB03E093BA039ECFFD0165
:10371000DC01C0CF13821282D7CFFB01DC0104C0D1
:103720008D910190801921F441505040C8F7881BB9
:10373000990B0895DC0101C06D9341505040E0F7B2
:103740000895E199FECF9FBB8EBBE09A99278DB378
:103750000895262FE199FECF9FBB8EBBE09A01977B
:103760000DB2021631F02DBB0FB6F894E29AE19A31
:103770000FBE0895262FE199FECF9FBB8EBB2DBBB8
:103780000FB6F894E29AE19A0FBE01960895F89464
:02379000FFCF69
:103792000000BC0380003C013A01380136013401CB
:1037A200320130012E012C012A01280126012401B7
:1037B20022010EFF0DFF0CFF0BFF0AFF09FF08FF9E
:1037C20007FF06FF05FF04FF03FF02FF01FFF716D5
:0E37D2000000000000000000000000000000E9
:00000001FF
