:100000000C945E010C94AE0E0C94830E0C94580E5E
:100010000C942D0E0C94020E0C94D70D0C94AC0D78
:100020000C94810D0C947D010C94D90E0C947D01DF
:100030000C947D010C947D010C947D010C947D0148
:100040000C94370D0C947D010C947D010C947D0172
:100050000C947D010C947D010C947D010C947D0128
:100060000C947D010C947D010C947D010C947D0118
:100070000C947D010C947D010C947D010C947D0108
:100080000C947D010C947D010C947D0141030000D2
:10009000000000130D0000000000000101C08000FE
:1000A000000000000000000000060000000000004A
:1000B0000000000000000000000000000000000040
:1000C0000000000000003F000000000000000000F1
:1000D0000000000000000000000000000000000020
:1000E0000000000000000000000000000000000010
:1000F00000000000000000000000000002001400EA
:100100000200140003001400010014000100140098
:10011000010014000100140001001400010014008B
:1001200001001400040014000500140000801F00EA
:1001300000811F00FF000000FF000000FF00000022
:10014000FF000000FF000000FF000000FF000000B3
:10015000FF000000FF000000FF000000FF000000A3
:10016000FF000000FF000000FF000000FF00000093
:10017000FF000000FF000000FF000000FF00000083
:10018000FF000000FF000000FF000000FF00000073
:10019000FF000000FF000000FF0000000000000A58
:1001A0000B0C000000000000010405060000000028
:1001B000000000000000000000000000000000003F
:1001C000000000000000000000000000000000002F
:1001D000007000740078007C008000840088008C2F
:1001E000009000940098009C00A000A400A800AC1F
:1001F00000B000B400B800BC00C000C400C800CC0F
:1002000000D000D400D800DC00E000E400E800ECFE
:1002100000F000F400F800FC000001040108010CEB
:100220000100003B00380035003200230062006509
:100230000000003A00370034003100220061006401
:100240000001020408102040800102040810204030
:1002500080081001020408102040800102010204FD
:100260000810204080048040201008040201010290
:1002700004081020408000003900360033003000B0
:10028000210020006300050505050505050502029E
:100290000202020202020707040404040404040424
:1002A000070703030303030303030701010101011C
:1002B00001010106060606060606060011241FBEF9
:1002C000CFEFD0E1DEBFCDBF11E0A0E0B1E0E8E0CC
:1002D000F4E300E00BBF02C007900D92AE34B1070B
:1002E000D9F723E0AEE4B1E001C01D92AB3BB20709
:1002F000E1F70E94320F0C94021A0C940000E82FD0
:10030000F0E0ED56FC4F8085861739F06087618BF1
:10031000809195038360809395030895262F30E0A4
:10032000909199039078691729F0909195039C60BA
:10033000909395033695322F222737952795822B58
:100340008093990380939A030895CF93DF9390E06D
:10035000FC01EF5BFD4F24918A579D4FFC01849176
:100360008823C9F090E0880F991FFC01EF5CFD4FD6
:10037000A591B491FC01EF5DFD4FC591D491611140
:100380000DC09FB7F8948C91209582238C9388811F
:10039000282328839FBFDF91CF910895623051F4C5
:1003A0009FB7F8943C91822F809583238C93E881AA
:1003B0002E2BEFCF8FB7F894EC912E2B2C938FBF71
:1003C000EACF3FB7F8948091700190917101A091AC
:1003D0007201B091730122B706B600FE05C02F3F2F
:1003E00019F00196A11DB11D3FBFBA2FA92F982F5B
:1003F0008827BC01CD01620F711D811D911D42E056
:10040000660F771F881F991F4A95D1F70895883086
:1004100008F5E82FF0E0EE0FFF1FE45EFE4F71835A
:1004200060838150873068F4E82FF0E0E65EFD4F8E
:100430000C9490182B023802460254025B026602AA
:10044000720280916A008C7F482B40936A0089B7C2
:10045000816089BF089580916A00837F440F551F92
:10046000440F551F482B40936A0089B78260F1CF33
:1004700080916A008F7C74E0440F551F7A95E1F7F4
:10048000482B40936A0089B78460E3CF80916A006B
:100490008F7366E0440F551F6A95E1F7482B409330
:1004A0006A0089B78860D5CF8AB78C7F482B4ABF4E
:1004B00089B78061CECF8AB7837F440F551F440F21
:1004C000551F482B4ABF89B78062C3CF8AB78F7C3C
:1004D00024E0440F551F2A95E1F7482B4ABF89B7FE
:1004E0008064B7CF8AB78F7396E0440F551F9A95F3
:1004F000E1F7482B4ABF89B78068ABCFFF920F93D3
:100500001F93CF93DF930E94E1012091520130911C
:100510005301EB01C21BD30B20917801309179017B
:10052000C217D30708F461C0409180015091810146
:100530004130510561F0E091A901F091AA012081BB
:100540003091AB0123233091760123134EC0709379
:1005500053016093520100917A0110917B01423066
:10056000510509F419C14330510509F454C1413012
:10057000510561F480915101813009F449C0D8F1ED
:10058000833009F486C0843009F4CFC080918001A3
:1005900090918101019749F1C017D10708F073C10B
:1005A00080914F018F5F80934F018B30F0F081E09D
:1005B00090E0909381018093800141E050E06EE7EC
:1005C00072E08091A7010E940702109276011092BA
:1005D000510182E590E090937B0180937A0183E260
:1005E00090E09093790180937801DF91CF911F91F2
:1005F0000F91FF900895C017D10730F481E08093E8
:100600005101C0935001C2CF84E080935101BECF0D
:10061000C017D107E0F51092510180914F018F5F13
:1006200080934F01209150018C2F0C2E000C990BC0
:10063000821B910927FD939597FF03C091958195A2
:100640009109499794F2109281011092800182E9F8
:1006500090E090937B0180937A0182E590E0909303
:1006600079018093780110924F01F09077014F2D1E
:1006700050E06EE772E08091A7010E94070280912E
:10068000AB0193E0F91229C0809376017FCF83E01C
:10069000BCCFC017D10718F51092810110928001CC
:1006A00082E990E090937B0180937A0182E590E06B
:1006B000909379018093780110924F01F090770127
:1006C0004F2D50E06EE772E08091A7010E94070273
:1006D0008091AB0133E0F316B9F280E0D5CF909171
:1006E0007701933009F482E08093770182E090E013
:1006F000909381018093800182E990E090937B0147
:1007000080937A0182E590E090937901809378015B
:100710001092860180914F0180938701109283018E
:100720001092850110928401C9CFC017D107A8F497
:10073000109281011092800182E990E090937B01F8
:1007400080937A0182E590E090937901809378011B
:1007500010924F011092830188CF82E090E0909335
:1007600081018093800182E990E090937B018093E6
:100770007A0182E590E0909379018093780110925C
:10078000860180914F01809387011092830110921E
:1007900085011092840169CF909183019F5F9093AE
:1007A000830180918401880FC017D107E0F0809306
:1007B0008401983009F0F0CEE0918601E630A9F48A
:1007C000109281011092800182E990E090937B0168
:1007D00080937A0182E590E090937901809378018B
:1007E00010928301D3CE8160E2CF83E090E09093BA
:1007F0008101809380019091840181E08E0F80932C
:100800008601F0E0E058FE4F9087809185018927AE
:1008100080938501BBCEC017D10728F510928101C6
:10082000109280011092830182E990E090937B0105
:1008300080937A0182E590E090937901809378012A
:10084000809185018111ACCE88E0E6E8F1E0AEE868
:10085000B1E001900D928A95E1F781E080938201E9
:1008600010924F0193CE80918601863009F4A8CF73
:1008700082E090E090938101809380011092830147
:100880001092840183CE10924F01AFCE0895CF9382
:10089000DF93DC01EC91F0E0EE0FFF1FEA58FD4F13
:1008A000C591D491988111968C91982381E009F497
:1008B00080E0DF91CF910895DC011296ED91FC91DB
:1008C000139711969C911197808161110EC090959C
:1008D000982390831496ED91FC9115979081119631
:1008E0008C918095892380830895982B9083089517
:1008F00080E090E0892B29F08091AF0183FD0C947A
:1009000000000895009731F160919603709197036C
:100910008617970709F06DC041504A30D8F4E42F8C
:10092000F0E0EB56FB4F0C9490189F04AB04B60418
:10093000C604CD04D404DB04E204E904F10480918C
:100940009B03281739F020939B03809195038160C6
:1009500080939503089590919C0380EF820F292B3B
:1009600028239217B9F320939C03EFCF30919C0377
:1009700040E1249FC0011124832B2295207F215F19
:100980008223381739F380939C03DFCF80919D0336
:10099000281701F320939D03D8CF80919E03281739
:1009A000C9F220939E03D1CF80919F03281791F223
:1009B00020939F03CACF8091A003281759F2209358
:1009C000A003C3CF8091A103281721F22093A10394
:1009D000BCCF8091A203281709F4BCCF2093A203B7
:1009E000B4CF8091A303281709F4B4CF2093A303B5
:1009F000ACCF309198033F773817190609F0AACF8A
:100A00004230A1F018F4413031F008954330D1F074
:100A1000443049F108958091A403281709F49ACF2E
:100A20002093A40380919503826092CF9091A503B7
:100A300080EF820F292B2823921709F48BCF209364
:100A4000A503F0CF3091A50340E1249FC0011124FC
:100A5000832B2295207F215F8223381709F47ACFD8
:100A60008093A503DFCF8091A603281709F472CFE6
:100A70002093A603D7CF0F93009721F1609196039F
:100A8000709197038617970729F5822F90E0309190
:100A900099033078231729F020919503246020933F
:100AA00095030D3189F00F3779F00F3081F49C01F7
:100AB0003695322F22273795279580919903822BDF
:100AC000809399030F91089540939903F0CF10926A
:100AD0009903EDCF309198033F773817190691F7B6
:100AE000822F90E030919A033078231729F02091DB
:100AF00095032860209395039695982F88279795BE
:100B00008795482B40939A03DDCF81508E30E8F4CF
:100B1000E82FF0E0E257FA4F0C9490189C059E05E0
:100B2000A005A605A805AA05AE05B205B605BA0535
:100B3000BC05BE05C005C605DF980895DE9808957A
:100B4000809162008F7D809362000895AE98089531
:100B5000AD98089580916200877FF5CF8091620003
:100B60008E7FF1CF809162008D7FEDCF809162000A
:100B70008B7FE9CFC3980895AF980895C4980895DE
:100B8000809165008B7F809365000895809162005D
:100B90008F7BD9CF1F93CF93DF93EC018A819B8109
:100BA00010E0892BE9F48D819E8110E0892B69F595
:100BB00088818E7F8883DF91CF911F910895812F47
:100BC00090E0880F991FEA81FB81E80FF91F0190DF
:100BD000F081E02D80818F7780830E9485051F5FE3
:100BE0008981181760F3DFCF812F90E0880F991F5C
:100BF000ED81FE81E80FF91F0190F081E02D8081E9
:100C00008F7780830E9485051F5F8C81181760F3A2
:100C1000CFCFFC0190819570953019F4CF010C94E1
:100C2000CA050895FC01208120FF03C022FF0C9417
:100C3000CA05089581508E30E8F4E82FF0E0ED5DAC
:100C4000F94F0C9490183106330635063B063D06E5
:100C50003F06430647064B064F0651065306550608
:100C60005B06DF9A0895DE9A0895809162008062A3
:100C7000809362000895AE9A0895AD9A0895809188
:100C800062008860F5CF809162008160F1CF809131
:100C900062008260EDCF809162008460E9CFC39AE8
:100CA0000895AF9A0895C49A08958091650084606C
:100CB000809365000895809162008064D9CF9091FF
:100CC0009503882361F090619093950381E00E94E1
:100CD0001A0680918A00887F80938A0008959F7EFB
:100CE0009093950381E00E948505109288001092F0
:100CF000890080918A008460EFCFCF93C82F8091C4
:100D000098018C1719F08C2F0E945F06C0939801F0
:100D1000CC23F9F02FB7F89480917C0190917D015C
:100D2000A0917E01B0917F012FBF482F392F2A2F2C
:100D30008B2F4093990130939A0120939B018093CC
:100D40009C01809198018C1749F08C2FCF910C94C5
:100D50005F0640E030E020E080E0EBCFCF910895E7
:100D60000F931F93CF938C01C0E0F8018181C817C6
:100D700020F0CF911F910F9108958C2F90E0880F54
:100D8000991FD8011296ED91FC91E80FF91F01907F
:100D9000F081E02D8081982F906890838F770E945A
:100DA0001A06CF5FE2CF1F93CF93DF93EC01288128
:100DB00020FD15C022FF13C0322F3160388321FF80
:100DC00009C02A813B81232B51F0DF91CF911F91E4
:100DD0000C94B0062D813E8110E0232BB9F4DF91F5
:100DE000CF911F910895812F90E0880F991FED8179
:100DF000FE81E80FF91F0190F081E02D8081982F8E
:100E0000906890838F770E941A061F5F8C81181755
:100E100050F3E5CFCF93DF93EC018881982F927048
:100E2000691789F0662369F082608883888180FF72
:100E30000AC0CE010E940906CE01DF91CF910C9429
:100E4000D3068D7FF2CFDF91CF9108951F93CF937B
:100E5000DF93EC012881322F357099F4322F316005
:100E6000388321FF09C02A813B81232B51F0DF9178
:100E7000CF911F910C94B0062D813E8110E0232B61
:100E8000B9F4DF91CF911F910895812F90E0880FE1
:100E9000991FED81FE81E80FF91F0190F081E02D8F
:100EA0008081982F906890838F770E941A061F5F29
:100EB0008C81181750F3E5CFCF93DF93EC01888135
:100EC000982F9270691789F0662369F08260888391
:100ED000888180FF0AC0CE010E941206CE01DF91F8
:100EE000CF910C9426078D7FF2CFDF91CF9108959B
:100EF000979A8FE79EE30197F1F700C0000097985B
:100F000008950C9478071F93CF93DF93EC018091A1
:100F1000950384FF0BC08FE090E00E945618182FB5
:100F200080E190E00E945618181306C0CE01DF91B0
:100F3000CF911F910C945618FFCF0C948307CF9339
:100F4000DF932091AC013091AD012F3F320721F0AA
:100F5000C901DF91CF9108958091AF0187FF2BC028
:100F600086FF0FC089E090E00E949D07C82F81E0B6
:100F700090E00E949D079C2F9093AD018093AC015F
:100F800015C089E090E00E949D07C82F81E090E0A5
:100F90000E949D0790E4C99F90011124207C31702C
:100FA0008F73282B3093AD012093AC018091AC015D
:100FB0009091AD01CECF85FF0CC081E190E00E9401
:100FC0009D07C82F82E190E00E949D07C05CDD0B69
:100FD000D2CF81E090E00E949D0790E0CDCFCF93EB
:100FE000863823E0920719F138F4813823E092071C
:100FF000D9F0CF910C945618873823E09207D1F09E
:10100000883823E09207A9F786E893E00E945618F3
:10101000C82F87E893E00E94561890E02FEFC29FF8
:10102000800D911D1124E5CF81E893E0E2CF86E8A1
:1010300093E0DFCF87E893E0DCCF0E947D06E6E90E
:10104000F1E081E087831086EFE9F1E088E0DF01DD
:101050001D928A95E9F708950F931F93CF93DF931D
:10106000EC01162FC63883E0D80781F150F4C1385F
:1010700083E0D807F9F0612FCE010E945E18CE01FF
:101080001FC0C73883E0D80741F1C83883E0D807CC
:1010900091F786E893E00E945618082F87E893E0BE
:1010A0000E945618C82FD0E08FEF089FC00DD11DA9
:1010B0001124E1CF81E893E00E945E1881E893E07B
:1010C000DF91CF911F910F910C94561886E893E011
:1010D0000E945E1886E893E0F3CF87E893E00E94D1
:1010E0005E1887E893E0ECCFCF93DF93D0E0C0E0C9
:1010F000FE01E457FF4F6491CE010E945E182196D5
:10110000C03181E0D807A1F761E081E893E00E9457
:101110005E18C0E0CF5F8C2F0E941A06CE30D1F748
:10112000DF91CF9108950C9474081F93CF93DF93B0
:10113000EC01162F089779F4662319F10E947408C0
:1011400080E090E0892BB9F0612FCE01DF91CF9143
:101150001F910C94000080E090E0892BA9F781E0BA
:10116000C11590E1D90708F080E0111105C0DF91A9
:10117000CF911F91089581E027972297C0F780E0D3
:10118000F6CF80E090E0892BF9F681E0F0CF0F9365
:101190001F93CF93DF93EC01162F8091950384FF6B
:1011A00025C0CF30D10561F48FE090E00E945E1839
:1011B0008FE090E0DF91CF911F910F910C94561822
:1011C0008FE090E00E945618082F80E190E00E9486
:1011D000561808130AC0C730D10531F0C830D10500
:1011E00029F4183049F0FFCFFFCFFFCF612FCE0198
:1011F0000E945E18CE01DECF0E94740888E0DF9165
:10120000CF911F910F9108958331910588F4813119
:10121000910530F48130910519F08930910531F450
:101220002FEF3FEF3093AD012093AC010C94C70832
:101230008D319105D9F7677F6093AF0120919601B9
:101240002F73362F307C232B20939601E9CFBF924A
:10125000CF92DF92EF92FF920F931F93CF93DF9382
:101260008B01B42E690182FF23C083FF17C061E0A8
:10127000C8010E9495088823D9F16B2DC8010E94EE
:1012800004098B1135C0F601DF91CF911F910F91A9
:10129000FF90EF90DF90CF90BF90099460E0C8017D
:1012A0000E949508882321F1C8010E949D07E9CF7B
:1012B000842F8770C1E0D0E07E0101C0EE0C8A95DA
:1012C000EAF7D42FD870CB010E949D07C82FB4FE37
:1012D0001CC061E0C8010E949508882349F0DD2305
:1012E00089F0CE296C2FC8010E9404098C1759F28D
:1012F000DF91CF911F910F91FF90EF90DF90CF90F2
:10130000BF900895E094CE21EDCF60E0C8010E9427
:101310009508882369F3CE21DD2319F0C111B3CFDD
:10132000E7CFCC2309F4AFCFE3CFAF92BF92DF92E8
:10133000EF92FF920F931F93CF93DF937C01162FB1
:10134000C42FD22ED42FD07E8091960187FF2CC03F
:10135000D03EC1F5A0909701AA20A1F1B12CC50102
:101360000E949D07D82FC50101960E949D07982FC6
:101370008D2FE816F90631F56C2F70E0762F662771
:10138000662773706D296F5F7F4F28E734E0402F29
:101390008C2FDF91CF911F910F91FF90EF90DF90F5
:1013A000BF90AF900C94270980FD33C0D03609F46C
:1013B00064C090F4D03209F449C0D03409F45DC05F
:1013C000DD2381F1DF91CF911F910F91FF90EF907D
:1013D000DF90BF90AF900895D03A09F484C090F4A4
:1013E0002C2F2F7141E0D03869F7612FC701DF91B1
:1013F000CF911F910F91FF90EF90DF90BF90AF9032
:101400000C948204D03C09F475C0D03E09F4B4CFEA
:10141000D9CF0E949F078E159F0541F2E114F10478
:1014200029F2D0CF8C2F8E7069F680E090E0892B66
:1014300049F28C2F8170DF91CF911F910F91FF9016
:10144000EF90DF90BF90AF900C940000CF71CF3140
:1014500009F0B8CF4D2D4F7761F0413061F02D2D5F
:10146000221F2227221F0DE1612FC7010E943B0589
:10147000A9CF41E0F4CF40E0F2CF2C2F30E08C2F09
:101480008F71813029F030F0803121F0813109F500
:1014900040E001C041E095E0359527959A95E1F748
:1014A00021700DE1612FC7010E943B0580E090E0B3
:1014B000892B09F487CF4C2F612FC701DF91CF9182
:1014C0001F910F91FF90EF90DF90BF90AF900C9421
:1014D0000000C901880F991F8E71C4FB442740F991
:1014E000482B4250D8CF2C2F2F7043E0C4FF7DCF24
:1014F00042E07BCFCF71CE3131F0CF3109F062CFF6
:101500002D2D45E072CF2D2D44E06FCF4F925F928D
:101510006F927F928F929F92AF92BF92CF92DF9203
:10152000EF92FF920F931F93CF93DF93C0917401BB
:10153000D091750180916701811116C02FB7F89481
:1015400080917C0190917D01A0917E01B0917F01FD
:101550002FBF8093630190936401A0936501B093C2
:10156000660181E08093670180915B01811111C068
:101570000E94E1016051710981099109609357014D
:10158000709358018093590190935A0181E08093A0
:101590005B010E94E1012B013C018FB7F894C090E0
:1015A0007C01D0907D01E0907E01F0907F018FBFA3
:1015B00080916301BC2CB81A809157019091580119
:1015C0009201281B390BC90120915601211169C0D4
:1015D000FE0130E020E045815681C417D50709F0AF
:1015E00056C045E0429F8001439F100D11240E5FBD
:1015F0001F4F0C0F1D1F109355010093540101152F
:10160000110509F458C0F801148213828031910544
:1016100008F492C1853F914008F0B4C18D8D9E8D34
:101620000E944704F801808381E080935601409234
:101630005701509258016092590170925A01F6E098
:10164000FB1508F47DC18D8D9E8D0E944704A090EE
:101650005401B090550190915601E92FE695E69519
:10166000E695292F277041E050E060E070E004C06B
:10167000440F551F661F771F2A95D2F7EA0DFB2DE1
:10168000F11D811129C040958081482327C02F5F1B
:101690003F4F35962530310509F09DCF10E000E031
:1016A000AACF26E02B1508F44BC18031910518F024
:1016B000853F914040F2DF91CF911F910F91FF90B4
:1016C000EF90DF90CF90BF90AF909F908F907F90E2
:1016D0006F905F904F9008958081482B408381E008
:1016E000890F8093560140925701509258016092A1
:1016F000590170925A01982F9770E9F68031E9F4F8
:10170000F5018081873780F4EB8DFC8D309721F4D3
:10171000BC8EAB8E07C0FC01838194810097D9F702
:10172000B482A38210925601C0926301D0926401E8
:10173000E0926501F0926601BECF8831A9F7F5010C
:1017400011811F778DEF782E710EF7E2F71580F07B
:1017500088818130A1F4812E912C1D3220F51B321D
:1017600028F4112351F121E0271508F18DE026C05E
:1017700085ED810F883250F48881823061F3E091E9
:101780005401F0915501D483C383CCCF8DEA810FEE
:10179000883220F48881833091F7DDCF8EEF810F7E
:1017A0008230C8F6ECCF8DEA810F8230F8F2C401A6
:1017B0008F579C4F0E94EF0701C08881F50102817D
:1017C00090819B3739F19F3709F46CC09737B9F690
:1017D0000813D5CF61E08D8D9E8D0E945C048D8DA8
:1017E0009E8D0E94260F8FE697E10197F1F700C0CA
:1017F0000000AD8DBE8D1496ED91FC911597808102
:1018000011969C91892B808360E08D8D9E8D0E9426
:101810005C04B5CF202F2870302F377004FF35C0FF
:101820001D3278F51B3208F0AACF91E0971508F029
:10183000A6CF41E050E060E070E004C0440F551FC7
:10184000661F771F3A95D2F7182F142B211103C06A
:10185000142F10951823612FC4018F579C4F0E949D
:101860002C0818138CCF61E08D8D9E8D0E945C0436
:101870008D8D9E8D0E94260FEFE6F7E13197F1F7EF
:10188000B6CF13551230A8F67ACF90E002C09595E6
:1018900087953A95E2F7817099272817190609F07C
:1018A0006ECF98CF1B32D9F190F51330C1F11430BF
:1018B00009F465CF602FC4018F579C4F0E942C08FC
:1018C00008131FC061E08D8D9E8D0E945C048D8D7C
:1018D0009E8D0E94260F8FE697E10197F1F700C0D9
:1018E0000000AD8DBE8D1496ED91FC911597808111
:1018F00011969C91892B808360E08D8D9E8D0E9436
:101900005C0411113CCF043078F4088338CF1335D0
:1019100031F0143509F433CF1C3261F630CF083082
:1019200081F70E9474089FCF61E081E893E00E94F4
:101930002C0881E0888323CFF6E0FB1508F0BBCEAE
:1019400099E09B1508F0B7CEC0926301D092640174
:10195000E0926501F09266010091540110915501E9
:101960008D8D9E8D0E944704F801808381E08093D5
:10197000560140925701509258016092590170925D
:101980005A0199CE26E02B15D8F295CE9F92AF92B0
:10199000BF92CF92DF92EF92FF920F931F93CF935C
:1019A000DF937C016B01942E81E0F701481328C07E
:1019B000A280B380E7012196A114B10431F562E061
:1019C00070E081E090E00E94AD188C01009731F04A
:1019D000FC01D182C08288818F5F8883F1E09F12F1
:1019E00042C0F70113830283DF91CF911F910F91C2
:1019F000FF90EF90DF90CF90BF90AF909F900895B1
:101A0000A580B680E7012496D7CF88818F5F888331
:101A1000C82FD0E062E070E0CE010E94AD188C01CA
:101A200020E0AE0141505109822F90E084179507C4
:101A300064F0C150D048CC0FDD1FC00FD11FD98238
:101A4000C882C5010E946519C9CF880F991FF50189
:101A5000E80FF91F60817181800F911FFC01718374
:101A600060832F5FE1CFF70116830583BDCF1F92FF
:101A70000F920FB60F9211242F933F938F939F9342
:101A8000AF93BF9380917C0190917D01A0917E01E5
:101A9000B0917F0130916F0123E0230F2D3768F162
:101AA00026E8230F0296A11DB11D20936F0180939C
:101AB0007C0190937D01A0937E01B0937F01809182
:101AC000700190917101A0917201B0917301019622
:101AD000A11DB11D8093700190937101A0937201BB
:101AE000B0937301BF91AF919F918F913F912F91CF
:101AF0000F900FBE0F901F9018950196A11DB11D5C
:101B0000D4CF1F920F920FB60F9211240BB60F92E3
:101B10002F933F934F935F936F937F938F939F93F5
:101B2000AF93BF93EF93FF93E0912A01F0912B01C4
:101B30000995FF91EF91BF91AF919F918F917F9107
:101B40006F915F914F913F912F910F900BBE0F902E
:101B50000FBE0F901F9018951F920F920FB60F9205
:101B600011240BB60F922F933F934F935F936F9374
:101B70007F938F939F93AF93BF93EF93FF93E091E6
:101B80002801F09129010995FF91EF91BF91AF9143
:101B90009F918F917F916F915F914F913F912F9185
:101BA0000F900BBE0F900FBE0F901F9018951F92B5
:101BB0000F920FB60F9211240BB60F922F933F93F3
:101BC0004F935F936F937F938F939F93AF93BF9345
:101BD000EF93FF93E0912601F09127010995FF9182
:101BE000EF91BF91AF919F918F917F916F915F9195
:101BF0004F913F912F910F900BBE0F900FBE0F9002
:101C00001F9018951F920F920FB60F9211240BB6CA
:101C10000F922F933F934F935F936F937F938F9385
:101C20009F93AF93BF93EF93FF93E0912401F091C3
:101C300025010995FF91EF91BF91AF919F918F91F0
:101C40007F916F915F914F913F912F910F900BBEBC
:101C50000F900FBE0F901F9018951F920F920FB606
:101C60000F9211240BB60F922F933F934F935F93D4
:101C70006F937F938F939F93AF93BF93EF93FF9354
:101C8000E0912201F09123010995FF91EF91BF911D
:101C9000AF919F918F917F916F915F914F913F9104
:101CA0002F910F900BBE0F900FBE0F901F901895A5
:101CB0001F920F920FB60F9211240BB60F922F9313
:101CC0003F934F935F936F937F938F939F93AF93C4
:101CD000BF93EF93FF93E0912001F09121010995CB
:101CE000FF91EF91BF91AF919F918F917F916F91F4
:101CF0005F914F913F912F910F900BBE0F900FBEB0
:101D00000F901F9018951F920F920FB60F921124EB
:101D10000BB60F922F933F934F935F936F937F93E5
:101D20008F939F93AF93BF93EF93FF93E0911E0127
:101D3000F0911F010995FF91EF91BF91AF919F9194
:101D40008F917F916F915F914F913F912F910F9064
:101D50000BBE0F900FBE0F901F9018951F920F9201
:101D60000FB60F9211240BB60F922F933F934F9300
:101D70005F936F937F938F939F93AF93BF93EF93F3
:101D8000FF93E0911C01F0911D010995FF91EF91E6
:101D9000BF91AF919F918F917F916F915F914F9183
:101DA0003F912F910F900BBE0F900FBE0F901F9081
:101DB00018951F920F920FB60F9211240BB60F9227
:101DC0002F933F934F935F936F937F938F939F9343
:101DD000AF93BF93CF93DF93EF93FF937894C2E3D6
:101DE000D1E0E991F991808187FF08C08F77209138
:101DF0004E019181921720F10E941A0681E0CE34A3
:101E0000D80779F786E984BD80914E018F5F8032D3
:101E1000D1F080934E01FF91EF91DF91CF91BF916F
:101E2000AF919F918F917F916F915F914F913F9172
:101E30002F910F900BBE0F900FBE0F901F90189513
:101E40000E948505DBCF10924E01E5CFDC01149690
:101E5000ED91FC911597908111968C918095892335
:101E600080830895CF93DF9300D01F92CDB7DEB764
:101E7000789483B78C6483BF87B7816087BF82E023
:101E80008EBD8EB581608EBD8FB581608FBD85B5ED
:101E9000846085BD85B5806485BD80918A0083603E
:101EA00080938A0080918B00816080938B0087E80B
:101EB00086B91AB80FB6F894A89581B5886181BD26
:101EC00011BC0FBE1ABA17BA14BA11BA12B81092CE
:101ED00061001092640061E081E00E94A501EDE9DB
:101EE000F1E09491E2E4F2E02491E7E8F2E08491F9
:101EF000882341F19923C1F091509C30A8F4E92F37
:101F0000F0E0EB57F04F0C94901836123612940F05
:101F1000910F1E1221122412940F940F28122E12C8
:101F200032129FB59F779FBDE82FF0E0EE0FFF1FA5
:101F3000EF5DFD4FA591B4918FB7F894EC912E2BE6
:101F40002C938FBFD79AD69A80916100806280933C
:101F50006100A69AA59A80916100886080936100D3
:101F60008091610081608093610080916100826056
:101F70008093610080916100846080936100BB9ACE
:101F8000A79ABC9A809164008460809364008091D9
:101F900061008064809361008F9A8DE190E00E94DF
:101FA0005618809393038CE190E00E94561880931A
:101FB00094038DE190E00E94561885FF5BC281E199
:101FC00090E00E9456188F73282F30E0522F44273C
:101FD0005B834A8382E190E00E945618AA81BB810C
:101FE000A82BBB83AA832A813B813093970320933C
:101FF000960383E190E00E9456188093980380E84E
:102000008093990380939A03E1EDCE2EE1E0DE2EDA
:10201000F2E3EF2EF1E0FF2EAEE4AA2EA1E0BA2EFD
:10202000B7E09B2EF60105911491C8010E94561845
:102030008983C80101960E9456188A830E5F1F4F3C
:10204000C8010E945618803228F06FE1C8010E9432
:102050006F188FE1D7010D911D917D01F8018183EA
:10206000FA81F03809F417C2F13809F41DC2F111F0
:1020700013C03981399D9001112420553E4F3B8377
:102080002A8341E0B801C9010E94C60C40E0B801B2
:102090008A819B810E94C60C82E0C80ED11CAE14BE
:1020A000BF0409F0BFCF85E190E00E94561880FF81
:1020B00005C09091B70194609093B70181FF05C06E
:1020C0009091BE0194609093BE0182FF05C09091F3
:1020D000C50194609093C50183FF05C09091CC0128
:1020E00094609093CC0184FF05C09091D3019460DB
:1020F0009093D30185FF05C09091DA01946090938D
:10210000DA0186FF05C09091E10194609093E101AE
:1021100087FF05C08091E80184608093E80186E133
:1021200090E00E94561880FF05C09091B001946025
:102130009093B00182FF05C09091EF01946090935D
:10214000EF0183FF05C09091F60194609093F60132
:1021500084FF05C09091FD0194609093FD0185FF7F
:1021600005C09091040294609093040286FF05C01C
:1021700090910B02946090930B0287FF05C08091B1
:1021800012028460809312028FE190E00E94C918CD
:102190009B838A8385E1AA81BB8111968C9386E01B
:1021A00090E00E94C918DC01EBE5F2E0E4911196A1
:1021B000EC931197E0EAF2E024912C9330E0220FA7
:1021C000331FF901EF5CFD4F8591949113969C9319
:1021D0008E931297F901EF5DFD4F859194911596BD
:1021E0009C938E931497EA81FB81B68FA58FF09311
:1021F000B603E093B50381E893E00E94EF07AA815C
:10220000BB818C93843048F061E081E893E00E94C8
:102210002C0881E0EA81FB8180832A813B81309315
:10222000750120937401D90111968C918F3FA1F013
:1022300060E00E94A501EA81FB8181819CEF980FFB
:10224000943020F08251843008F08FEF42E050E06B
:1022500066E87AE00E94070260E0AA81BB815D9691
:102260008D919C910E945C042A813B81F901368307
:10227000258333872287308B2787358B248B328FBA
:10228000218F148E138E82E08093A70184E18093C6
:10229000A801EAE9F2E0E491F0E0EE0FFF1FEA584E
:1022A000FD4F859194919093AA018093A901E5E552
:1022B000F2E0E491E093AB0160E084E10E94A501CB
:1022C000E0E8F1E086E1DF011D928A95E9F782E915
:1022D00090E090937B0180937A0182E590E0909367
:1022E00079018093780110929601109297018FEFF7
:1022F0009FEF9093AD018093AC011092AE0183E00B
:10230000809377018091AB018093760143E050E0A8
:102310006EE772E08091A7010E9407028DE190E0D4
:102320000E949D07682F6F738DE190E00E94040961
:102330008093AF0163E187E090E00E9404096DE0C3
:1023400088E090E00E94040980E00E941D0814BC0F
:1023500015BC85B5887F85BD87B7806487BF85B587
:10236000836085BD85B7837E85BF85B7806285BF65
:10237000B1E0B98320E0C22E20E0D22E30E0432E1F
:1023800030E0532E40E0642E40E0742E50E0E52E05
:1023900050E0F52E60E0A62E60E0B62EE091B50389
:1023A000F091B603FB83EA83038CF48DE02D309724
:1023B00009F080C0F981F13009F0C0C08091980126
:1023C0008823F1F02FB7F89480917C0190917D01E2
:1023D000A0917E01B0917F012FBF40919901509152
:1023E0009A0160919B0170919C01841B950BA60B37
:1023F000B70B4597A105B10518F080E00E941D08B4
:1024000080918201882309F499C0F89488E0EEE86D
:10241000F1E0ADEAB3E001900D928A95E1F71092F8
:10242000820178948091AD03E82FF0E0E155FC4FF4
:10243000863008F0C4C211928F5FFACF9FB59F7D9E
:1024400072CD9FB5977F6FCD95B59F7D95BD6CCDB6
:1024500090918B009F7790938B0066CD90918B002D
:102460009F7DF9CF90918B00977FF5CF93B79F7D9C
:1024700093BF5ACD81E090E00E945618181634F0B0
:1024800063E081E090E00E945E1883E0E82FF0E0D6
:10249000FB83EA83A8CD4981499DC001112440E016
:1024A000B80180559E4FF6CD5981599DC001112428
:1024B00041E0F6CF20E030E0232B21F061818081E4
:1024C0000E940000AA81BB815B96ED91FC91808106
:1024D000813409F4C7C108F022C18A3209F41FC24D
:1024E00008F0FBC0843209F42AC188F4813209F46F
:1024F000CEC1833209F4D4C1811114C0A0E0B0E090
:10250000AB2B09F42CC181810E94000028C18632C6
:1025100009F4D7C108F4E6C1883209F4F0C1893260
:1025200009F4F6C183819481AA81BB81B483A3831A
:102530005C969C938E935B97BAE0B98380919503E8
:1025400082FF20C080EB91E09B838A8315E4609139
:1025500099038091930380FF91C46095661F66275D
:10256000661F8A819B810E945C071150AA81BB81F2
:102570001796BB83AA831111EACF809195038B7FB5
:10258000809395038091950383FF21C0E0EBF1E0F8
:10259000FB83EA8315E460919A038091980387FF97
:1025A0006FC46095661F6627661F8A819B810E94A3
:1025B0000A0711502A813B81295F3F4F3B832A83C1
:1025C0001111E9CF80919503877F809395038091C6
:1025D000950380FF3EC003E913E028EF822E912C83
:1025E00037E0332E911067C480919B0384FF4AC467
:1025F00080EB91E00E94260780919B0380FF47C4F7
:1026000087EB91E00E94260780919B0381FF44C4E1
:102610008EEB91E00E94260780919B0382FF41C4CC
:1026200085EC91E00E94260780919B0383FF3EC4C6
:102630008CEC91E00E94260793940F5F1F4FF8E007
:102640008F0E29E09212CECF809195038E7F8093DA
:1026500095038091950381FF3EC003E913E088EF65
:10266000882E912C97E0392E9110AFC48091A4034D
:1026700084FF92C480EB91E00E94D3068091A40372
:1026800080FF8FC487EB91E00E94D3068091A40362
:1026900081FF8CC48EEB91E00E94D3068091A4034D
:1026A00082FF89C485EC91E00E94D3068091A40347
:1026B00083FF86C48CEC91E00E94D30693940F5F55
:1026C0001F4FF8E08F0E29E09212CECF8091950334
:1026D000877F80939503889561CE8E3209F434C14B
:1026E00058F48C3209F429C108F420C1E114F10432
:1026F000B1F1618185E009C1803309F433C108F487
:102700002AC1813309F437C1803409F00BCFC114D9
:10271000D10429F1618180E00E94000020C082364E
:1027200009F469C068F5813509F4DCC088F48334A4
:1027300009F4A6C008F49DC0803509F0F3CE81816C
:1027400060E087FF02C061E080580E948E0107C0F0
:102750008E3509F417C160F4823509F0E3CEAA8101
:10276000BB815B96ED91FC915C9783819481DECE79
:102770008036E1F1813609F0D5CE618181E038C043
:10278000873609F444C058F48436D9F1B8F1853657
:10279000D9F1863609F0C6CE618186E029C08C3633
:1027A00009F404C130F4883609F0BCCE618188E0B8
:1027B0001FC08D3679F18E3609F0B4CEA381B48175
:1027C000109709F455C38C918F3649F64114510482
:1027D00031F22181622F661F6627661F11968C9148
:1027E000B0E88B9FC0011124822B39C0618180E049
:1027F0000E947F01B4CF618182E0FACF618183E0E2
:10280000F7CF618184E0F4CF618185E0F1CF618110
:1028100087E0EECF6181862F8F774114510409F450
:102820009ECF81111AC010E000E067FD0BC00F5F62
:102830001F4F0038110509F492CF60E0C8010E94D3
:102840000000F5CF0F5F1F4F0038110509F487CF47
:1028500061E0C8010E940000F5CF607890E00E941E
:1028600000007DCFC114D10409F479CF618181E0EA
:1028700053CFC114D10409F472CF618182E04CCFEF
:10288000C114D10409F46BCF618183E045CF20E00E
:1028900030E0232B09F463CF81810E9400005FCFD9
:1028A00040E050E0452B09F45ACF818187FD03C0F9
:1028B0000E94000054CF819590E0919581959109F7
:1028C000F7CF80E090E0892B09F449CF818187FD23
:1028D00003C00E94000043CF819590E091958195BF
:1028E0009109F7CF6114710409F439CF818160E057
:1028F00087FF02C061E080580E94000030CFE114E1
:10290000F10409F42CCF618180E00E94000027CF00
:10291000E114F10409F423CF618181E0F6CFE114E1
:10292000F10409F41CCF618182E0EFCFE114F104DE
:1029300009F415CF618183E0E8CFE114F10409F4D3
:102940000ECF618184E0E1CFE114F10409F407CFF7
:10295000618186E0DACFE114F10409F400CF6181EE
:1029600087E0D3CFA114B10409F4F9CE618181E0ED
:102970000E940000F4CEA114B10409F4F0CE6181EC
:1029800082E0F6CFA381B481109709F474C28C91D0
:102990008F3509F0E4CE20E030E0232B09F4DFCEC0
:1029A00011969C9181810E940000D9CE40E050E0B8
:1029B000452B09F4D4CE81810E940000D0CEE0E006
:1029C000F0E0EF2B21F08DEA93E00E94000080916F
:1029D000AF03811117C09091B003911113C080E033
:1029E00090E0892B19F080E00E940000809198010E
:1029F000882321F081E00E947D06A0CD81E00E9425
:102A00001D089CCD90919801992309F495C0805799
:102A1000803108F08EC081E00E947D06F091AD0308
:102A2000FA8380919F01F8130AC04F2F50E061EAAA
:102A300071E08FEA93E00E94EE19892B61F0109209
:102A40009E0188E0EDEAF3E0AFE9B1E001900D927C
:102A50008A95E1F773CD80919E018F5F80939E01EF
:102A60002A81233009F04CC09091AF03892F8770E1
:102A70001091B003853029F410939D010E947807CE
:102A80005DCD843059F1282F30E0843010F540912D
:102A90009D014423F1F0A42FA150BB0BAA0FBB1F33
:102AA000AA0FBB1FA20FB31F1196BB83AA8393FF6C
:102AB0001AC061E08A819B810E949508882309F4ED
:102AC0003DCD612F8A819B810E940409181336CD68
:102AD000D5CFF9013196FB83EA83E9CF2DE130E0D0
:102AE0003B832A83E4CF60E08A819B810E94950822
:102AF000882309F423CD8A819B810E949D07E6CF1C
:102B00003A81343009F01ACD8091AF03682F70E01C
:102B1000762F6627662773709091B003692B6F5FDD
:102B20007F4F21E837E04091B1038C700E94270964
:102B300005CD80E00E941D08E091AF03EF3F61F4F6
:102B40008091B0038111FACC80E090E0892B09F4E8
:102B5000F5CC0E940000F2CCE7FD0CC00091B2035E
:102B60002091B1034091B00360E08E2F90E00E946D
:102B70009509E4CCE03C08F06BC19091960197FF79
:102B8000DDCC8091B003282F30E0A901409550950D
:102B9000440F551F440F551F407C5170EF734E2B4F
:102BA0005B834A8335952795522F5370352E20919C
:102BB000AD03253069F58C788C3051F50E949F0764
:102BC000AA81BB818A179B0721F0AF3FB14009F072
:102BD000B5CCF091B0032F2F30E0522F442744277B
:102BE00053708091B103480F511D4F5F5F4F5B835E
:102BF0004A831091B20361E0CA010E949508612FD7
:102C0000882309F49BCC8A819B810E94040996CC7D
:102C10008A809B8051E0851A9108880C991C880C49
:102C2000991C832884010F5F1F4F8091AE01882378
:102C3000F9F096FF41C0C80160E071E00E947C1885
:102C4000682F81E090E00E940409C80117FF02C0CC
:102C500081509F4F692F89E090E00E94040980E035
:102C600090E0892B19F0C8010E9400001092AE017B
:102C70008091960180FD3CC08091AD03843009F0C5
:102C800052C08091B0038978813009F057CC6091AF
:102C9000B10380E090E0892B19F0C8010E94000088
:102CA00080E090E0892B09F449CC4091B103632D79
:102CB000C8010E94000042CC6A817B816F73772734
:102CC00081E090E00E9404096A817B81E6E07595CD
:102CD0006795EA95E1F789E090E00E94040980E0B9
:102CE00090E0892B19F28A819B810E940000BECF5F
:102CF00086FF0CC00E949F078017910709F4BCCF84
:102D00000D3F87E018070CF0B7CF18CC0E949F0743
:102D1000AA81BB818A179B0709F4AECFAF3FB140B0
:102D200009F4AACF0BCC833079F54091B003F42F8E
:102D3000F1708F2E43FB992490F880E090E0892B6E
:102D400039F04770292D6A817B81C8010E940000FB
:102D50008091960186FF0BC080E090E0892B09F4FA
:102D6000EDCB492D682DC8010E940000E7CB80E023
:102D700090E0892B09F4E2CB292D482D632D8A811F
:102D80009B810E940000DACB863009F0D7CB80917E
:102D9000B003982F9978913021F08F78803809F01E
:102DA000CDCB8091960186FF2BC00E949F07801794
:102DB000910711F58091B10390E0382F2227222747
:102DC00033704091B203A42FA20FB32FB11D1196FF
:102DD000BB83AA831091B3039595879595958795A5
:102DE0008370992782309105B1F0039709F0A6CB43
:102DF00061E08A819B8101CF0D3F1740DCF69ECBBD
:102E00000E949F07EA81FB818E179F0799F2EF3F8F
:102E1000F14081F293CB14FF91CB61E08A819B81D9
:102E20000E949508882309F489CB8A819B810E949E
:102E30009D07912F977061E070E001C0660F9A9531
:102E4000EAF713FF02C0682BDECE60956823DBCE65
:102E5000E83E08F073CBE05CFF0B8091B00300917B
:102E6000B3032091B2034091B10361E09E2F7FCE66
:102E70003AE0398363CB4AE0498360CB607871CB19
:102E8000607893CB80EB91E00E941206B5CB87EB84
:102E900091E00E941206B8CB8EEB91E00E941206E0
:102EA000BBCB85EC91E00E941206BECB8CEC91E08E
:102EB0000E941206C1CB882D90E00596389EA00195
:102EC000399E500D11245B834A83CA0180559E4F61
:102ED000D80118962C9120FF4AC00E9426078A81AB
:102EE0009B8189549E4FF801208521FF43C00E9499
:102EF00026078A819B8182549E4FD80118962C9177
:102F000022FF3BC00E9426078A819B818B539E4FE4
:102F1000F801208523FF34C00E9426078A819B8107
:102F200084539E4FD80118962C9124FF2CC00E94E8
:102F300026078A819B818D529E4FF801208525FFAF
:102F400025C00E9426078A819B8186529E4FD80108
:102F500018962C9126FF1DC00E9426078A819B810E
:102F60008F519E4FF801208527FFA2CF63CB0E948F
:102F70001206B5CF0E941206BCCF0E941206C4CF23
:102F80000E941206CBCF0E941206D3CF0E941206D7
:102F9000DACF0E941206E2CF80EB91E00E94090690
:102FA0006DCB87EB91E00E94090670CB8EEB91E030
:102FB0000E94090673CB85EC91E00E94090676CB4E
:102FC0008CEC91E00E94090679CB882D90E0059663
:102FD000389EA001399E500D11245B834A83CA019B
:102FE00080559E4FD80151962C9120FF4AC00E94D7
:102FF000D3068A819B8189549E4FF801218921FF44
:1030000043C00E94D3068A819B8182549E4FD8017F
:1030100051962C9122FF3BC00E94D3068A819B814E
:103020008B539E4FF801218923FF34C00E94D306A1
:103030008A819B8184539E4FD80151962C9124FF05
:103040002CC00E94D3068A819B818D529E4FF8012D
:10305000218925FF25C00E94D3068A819B81865243
:103060009E4FD80151962C9126FF1DC00E94D30679
:103070008A819B818F519E4FF801218927FFA2CF22
:103080001BCB0E940906B5CF0E940906BCCF0E9447
:103090000906C4CF0E940906CBCF0E940906D3CFF0
:1030A0000E940906DACF0E940906E2CFE199FECF1D
:1030B0009FBB8EBBE09A99278DB30895262FE19987
:1030C000FECF9FBB8EBBE09A01970DB2021631F086
:1030D0002DBB0FB6F894E29AE19A0FBE0895262F01
:1030E000E199FECF9FBB8EBB2DBB0FB6F894E29A41
:1030F000E19A0FBE0196089597FB072E16F40094EF
:1031000007D077FD09D00E94991807FC05D03EF43E
:10311000909581959F4F0895709561957F4F089583
:10312000EE0FFF1F0024001C0BBE0790F691E02D50
:103130000994AA1BBB1B51E107C0AA1FBB1FA617FE
:10314000B70710F0A61BB70B881F991F5A95A9F750
:1031500080959095BC01CD0108950F931F93CF9357
:10316000DF93869F8001879F100D969F100D11247D
:10317000C8010E94C918EC01009729F0A80170E06D
:1031800060E00E94FB19CE01DF91CF911F910F915A
:1031900008950F931F93CF93DF938230910510F41E
:1031A00082E090E0E091B903F091BA0330E020E0D2
:1031B000B0E0A0E0309799F42115310509F44AC038
:1031C000281B390B24303105D8F58A819B81611584
:1031D000710589F1FB0193838283FE0111C0408157
:1031E00051810281138148175907E0F048175907A8
:1031F00099F4109761F012960C93129713961C9302
:103200003296CF01DF91CF911F910F9108950093D6
:10321000B9031093BA03F4CF2115310551F04217C9
:10322000530738F0A901DB019A01BD01DF01F80164
:10323000C1CFEF01F9CF9093BA038093B903CDCFFB
:10324000FE01E20FF31F81939193225031093983DC
:103250002883D7CF2091B7033091B803232B41F4B3
:1032600020912E0130912F013093B8032093B703A2
:1032700020912C0130912D012115310541F42DB7FC
:103280003EB74091300150913101241B350BE09144
:10329000B703F091B803E217F307A0F42E1B3F0B1E
:1032A0002817390778F0AC014E5F5F4F24173507B8
:1032B00048F04E0F5F1F5093B8034093B7038193BC
:1032C00091939FCFF0E0E0E09CCFCF93DF93009706
:1032D000E9F0FC01329713821282A091B903B091F8
:1032E000BA03ED0130E020E01097A1F42081318194
:1032F000820F931F2091B7033091B8032817390725
:1033000009F061C0F093B803E093B703DF91CF9168
:103310000895EA01CE17DF07E8F54A815B819E0137
:1033200041155105B1F7E901FB83EA8349915991B0
:10333000C40FD51FEC17FD0761F4808191810296BF
:10334000840F951FE90199838883828193819B83F0
:103350008A83F0E0E0E012968D919C91139700979C
:10336000B9F52D913C911197CD010296820F931FD3
:103370002091B7033091B8032817390739F63097F1
:1033800051F51092BA031092B903B093B803A09309
:10339000B703BCCFD383C28340815181840F951F73
:1033A000C817D90761F44E5F5F4F88819981480F34
:1033B000591F518340838A819B8193838283211586
:1033C000310509F0B0CFF093BA03E093B9039ECF73
:1033D000FD01DC01C0CF13821282D7CFFB01DC01DB
:1033E00004C08D910190801921F441505040C8F7DC
:1033F000881B990B0895DC0101C06D93415050402A
:08340000E0F70895F894FFCFF6
:103408000EFF0DFF0CFF0BFF0AFF09FF08FF07FF68
:1034180006FF05FF04FF03FF02FF01FF460400004B
:103428000000000000000000000000000000BB03D6
:1034380080001A01180116011401120110010E0171
:0E3448000C010A010801060104010201000145
:00000001FF
